[
  {
    "signedTx": "0x02f90375827a690184773594008506fc23ac008401c9c380945fbdb2315678afecb367f032d93f642f64180aa380b9030400041499000000000000000000000000000000000000000000000000000000000000002000000000000000000000000000000000000000000000000000000000000001a0000000000000000000000000000000000000000000000000000000000000022000000000000000000000000000000000000000000000000000000000000000000000000000000000000000000000000000000000000000000000000000000000000000000000000000000000000000000000000000000000000000000000000153a29abf61e34d64a21ef09acbc0e34e0000000000000000000000000000000000000000000000000000000000000000000000000000000000000000000002a0d66af1eb62efc5ba89b65acc4e83743b5e1717a87ef9650e0efc9888c24f343d50f50e6b8351e86c2d23ebd4d5bc9dfe334c3f0180cad0bda1e05ef4b68a533f000000000000000000000000000000000000000000000000000000000000001c7c122a2c849a327d23b629073b306969ca6331dc098cf1dee8398f6108631c2c120c6e5b4b5ecd208312f93fdafbcc24ad0190adfdeb8a141d03d3eaa6c89574000000000000000000000000000000000000000000000000000000000000001c0000000000000000000000000000000000000000000000000000000000000041048318535b54105d4a7aae60c08fc45f9687181b4fdfc625bd1a753fa7397fed753547f11ca8696646f2f3acb08e31016afac23e630c5d11f59f61fef57b0d2aa5000000000000000000000000000000000000000000000000000000000000000000000000000000000000000000000000000000000000000000000000000041049d9031e97dd78ff8c15aa86939de9b1e791066a0224e331bc962a2099a7b1f0464b8bbafe1535f2301c72c2cb3535b172da30b02686ab0393d348614f157fbdb0000000000000000000000000000000000000000000000000000000000000000000000000000000000000000000000000000000000000000000000000000145fbdb2315678afecb367f032d93f642f64180aa3000000000000000000000000c080a0ae32767ea82f26e860e7ad6fe929f58097979ea95ec02eea105df32907aa8f12a027f8de6d35b4b216b9c9c9bd3548e1ae67ee7c4cbc0318bdec02438e1c895c81",
    "decodedTx": {
      "from": "0xf39fd6e51aad88f6f4ce6ab8827279cfffb92266",
      "to": "0x5fbdb2315678afecb367f032d93f642f64180aa3",
      "value": "0",
      "gasLimit": "30000000",
      "nonce": 1,
      "chainId": "31337",
      "maxFeePerGas": "30000000000",
      "maxPriorityFeePerGas": "2000000000",
      "funcName": "createDelegationEvent",
      "encodedData": "0x00041499000000000000000000000000000000000000000000000000000000000000002000000000000000000000000000000000000000000000000000000000000001a0000000000000000000000000000000000000000000000000000000000000022000000000000000000000000000000000000000000000000000000000000000000000000000000000000000000000000000000000000000000000000000000000000000000000000000000000000000000000000000000000000000000000000153a29abf61e34d64a21ef09acbc0e34e0000000000000000000000000000000000000000000000000000000000000000000000000000000000000000000002a0d66af1eb62efc5ba89b65acc4e83743b5e1717a87ef9650e0efc9888c24f343d50f50e6b8351e86c2d23ebd4d5bc9dfe334c3f0180cad0bda1e05ef4b68a533f000000000000000000000000000000000000000000000000000000000000001c7c122a2c849a327d23b629073b306969ca6331dc098cf1dee8398f6108631c2c120c6e5b4b5ecd208312f93fdafbcc24ad0190adfdeb8a141d03d3eaa6c89574000000000000000000000000000000000000000000000000000000000000001c0000000000000000000000000000000000000000000000000000000000000041048318535b54105d4a7aae60c08fc45f9687181b4fdfc625bd1a753fa7397fed753547f11ca8696646f2f3acb08e31016afac23e630c5d11f59f61fef57b0d2aa5000000000000000000000000000000000000000000000000000000000000000000000000000000000000000000000000000000000000000000000000000041049d9031e97dd78ff8c15aa86939de9b1e791066a0224e331bc962a2099a7b1f0464b8bbafe1535f2301c72c2cb3535b172da30b02686ab0393d348614f157fbdb0000000000000000000000000000000000000000000000000000000000000000000000000000000000000000000000000000000000000000000000000000145fbdb2315678afecb367f032d93f642f64180aa3000000000000000000000000",
      "decodedData": {
        "delegatorPubkey": "0x048318535b54105d4a7aae60c08fc45f9687181b4fdfc625bd1a753fa7397fed753547f11ca8696646f2f3acb08e31016afac23e630c5d11f59f61fef57b0d2aa5",
        "delegateePubkey": "0x049d9031e97dd78ff8c15aa86939de9b1e791066a0224e331bc962a2099a7b1f0464b8bbafe1535f2301c72c2cb3535b172da30b02686ab0393d348614f157fbdb",
        "delegationStartTime": "0",
        "delegationEndTime": "0",
        "doesRevocationRequireDelegateeSignature": true,
        "nonce": "0x53a29abf61e34d64a21ef09acbc0e34e",
        "expectedAddressOfDeployedContract": "0x5fbdb2315678afecb367f032d93f642f64180aa3",
        "rDelegatorPubkeySig": "0xd66af1eb62efc5ba89b65acc4e83743b5e1717a87ef9650e0efc9888c24f343d",
        "sDelegatorPubkeySig": "0x50f50e6b8351e86c2d23ebd4d5bc9dfe334c3f0180cad0bda1e05ef4b68a533f",
        "vDelegatorPubkeySig": "28",
        "rDelegateePubkeySig": "0x7c122a2c849a327d23b629073b306969ca6331dc098cf1dee8398f6108631c2c",
        "sDelegateePubkeySig": "0x120c6e5b4b5ecd208312f93fdafbcc24ad0190adfdeb8a141d03d3eaa6c89574",
        "vDelegateePubkeySig": "28"
      }
    }
  },
  {
    "signedTx": "0x02f90375827a698084773594008506fc23ac008401c9c380945fbdb2315678afecb367f032d93f642f64180aa380b9030400041499000000000000000000000000000000000000000000000000000000000000002000000000000000000000000000000000000000000000000000000000000001a000000000000000000000000000000000000000000000000000000000000002200000000000000000000000000000000000000000000000000000000000000000000000000000000000000000000000000000000000000000000000000000000000000000000000000000000000000000000000000000000000000000000000019f77a6b756864b5895e991172243040c0000000000000000000000000000000000000000000000000000000000000000000000000000000000000000000002a05808becc322e30d8f526dbada224fbb493bd22b6624034df820f01c789febac07f25e6dfe12e814c127896d192c6edb1dfa435f676ff9201e74d2570ebc87552000000000000000000000000000000000000000000000000000000000000001cde6dd7bcaa1c7ec51d639ad62a9c15429a210502b6fc823e542f9dfa61e7ebd652edab6fefe2053d21cf9f7830d4a062fa1de19d041b5384fc47f51d5d999b74000000000000000000000000000000000000000000000000000000000000001b0000000000000000000000000000000000000000000000000000000000000041049d9031e97dd78ff8c15aa86939de9b1e791066a0224e331bc962a2099a7b1f0464b8bbafe1535f2301c72c2cb3535b172da30b02686ab0393d348614f157fbdb0000000000000000000000000000000000000000000000000000000000000000000000000000000000000000000000000000000000000000000000000000410420b871f3ced029e14472ec4ebc3c0448164942b123aa6af91a3386c1c403e0ebd3b4a5752a2b6c49e574619e6aa0549eb9ccd036b9bbc507e1f7f9712a2360920000000000000000000000000000000000000000000000000000000000000000000000000000000000000000000000000000000000000000000000000000145fbdb2315678afecb367f032d93f642f64180aa3000000000000000000000000c080a07f7d4c5db75f2fc8cbc03555f5fcbd8ea1d4f42eafd8b3edf823070c1a44018ca00459c5174040353a5a9f37313efeab4f0cc65412c400f38df625cb99bd998bc5",
    "decodedTx": {
      "from": "0x3c44cdddb6a900fa2b585dd299e03d12fa4293bc",
      "to": "0x5fbdb2315678afecb367f032d93f642f64180aa3",
      "value": "0",
      "gasLimit": "30000000",
      "nonce": 0,
      "chainId": "31337",
      "maxFeePerGas": "30000000000",
      "maxPriorityFeePerGas": "2000000000",
      "funcName": "createDelegationEvent",
      "encodedData": "0x00041499000000000000000000000000000000000000000000000000000000000000002000000000000000000000000000000000000000000000000000000000000001a000000000000000000000000000000000000000000000000000000000000002200000000000000000000000000000000000000000000000000000000000000000000000000000000000000000000000000000000000000000000000000000000000000000000000000000000000000000000000000000000000000000000000019f77a6b756864b5895e991172243040c0000000000000000000000000000000000000000000000000000000000000000000000000000000000000000000002a05808becc322e30d8f526dbada224fbb493bd22b6624034df820f01c789febac07f25e6dfe12e814c127896d192c6edb1dfa435f676ff9201e74d2570ebc87552000000000000000000000000000000000000000000000000000000000000001cde6dd7bcaa1c7ec51d639ad62a9c15429a210502b6fc823e542f9dfa61e7ebd652edab6fefe2053d21cf9f7830d4a062fa1de19d041b5384fc47f51d5d999b74000000000000000000000000000000000000000000000000000000000000001b0000000000000000000000000000000000000000000000000000000000000041049d9031e97dd78ff8c15aa86939de9b1e791066a0224e331bc962a2099a7b1f0464b8bbafe1535f2301c72c2cb3535b172da30b02686ab0393d348614f157fbdb0000000000000000000000000000000000000000000000000000000000000000000000000000000000000000000000000000000000000000000000000000410420b871f3ced029e14472ec4ebc3c0448164942b123aa6af91a3386c1c403e0ebd3b4a5752a2b6c49e574619e6aa0549eb9ccd036b9bbc507e1f7f9712a2360920000000000000000000000000000000000000000000000000000000000000000000000000000000000000000000000000000000000000000000000000000145fbdb2315678afecb367f032d93f642f64180aa3000000000000000000000000",
      "decodedData": {
        "delegatorPubkey": "0x049d9031e97dd78ff8c15aa86939de9b1e791066a0224e331bc962a2099a7b1f0464b8bbafe1535f2301c72c2cb3535b172da30b02686ab0393d348614f157fbdb",
        "delegateePubkey": "0x0420b871f3ced029e14472ec4ebc3c0448164942b123aa6af91a3386c1c403e0ebd3b4a5752a2b6c49e574619e6aa0549eb9ccd036b9bbc507e1f7f9712a236092",
        "delegationStartTime": "0",
        "delegationEndTime": "0",
        "doesRevocationRequireDelegateeSignature": true,
        "nonce": "0x9f77a6b756864b5895e991172243040c",
        "expectedAddressOfDeployedContract": "0x5fbdb2315678afecb367f032d93f642f64180aa3",
        "rDelegatorPubkeySig": "0x5808becc322e30d8f526dbada224fbb493bd22b6624034df820f01c789febac0",
        "sDelegatorPubkeySig": "0x7f25e6dfe12e814c127896d192c6edb1dfa435f676ff9201e74d2570ebc87552",
        "vDelegatorPubkeySig": "28",
        "rDelegateePubkeySig": "0xde6dd7bcaa1c7ec51d639ad62a9c15429a210502b6fc823e542f9dfa61e7ebd6",
        "sDelegateePubkeySig": "0x52edab6fefe2053d21cf9f7830d4a062fa1de19d041b5384fc47f51d5d999b74",
        "vDelegateePubkeySig": "27"
      }
    }
  },
  {
    "signedTx": "0x02f90375827a698084773594008506fc23ac008401c9c380945fbdb2315678afecb367f032d93f642f64180aa380b9030400041499000000000000000000000000000000000000000000000000000000000000002000000000000000000000000000000000000000000000000000000000000001a00000000000000000000000000000000000000000000000000000000000000220000000000000000000000000000000000000000000000000000000000000000000000000000000000000000000000000000000000000000000000000000000000000000000000000000000000000000000000000000000000000000000000001adcaf8e3c8cc481daa3ca443678790a60000000000000000000000000000000000000000000000000000000000000000000000000000000000000000000002a09e34f54d79e400387c1cbf6689180ca3d90f2ab2c7db55f0d9a8d0a4a52a061568447feb9cae1806e08459ada07c90ec1654a2225730677c85f45202d55de455000000000000000000000000000000000000000000000000000000000000001c6d40db57597750bb2262dea6f3bfb41e3f356fcbab883b5eb40cf08c56855d2e2fc478c2bca9eff902fc922fd15d3bccbd216da9faf0ebc6d44235b5e7fdb1c1000000000000000000000000000000000000000000000000000000000000001c00000000000000000000000000000000000000000000000000000000000000410420b871f3ced029e14472ec4ebc3c0448164942b123aa6af91a3386c1c403e0ebd3b4a5752a2b6c49e574619e6aa0549eb9ccd036b9bbc507e1f7f9712a23609200000000000000000000000000000000000000000000000000000000000000000000000000000000000000000000000000000000000000000000000000004104bf6ee64a8d2fdc551ec8bb9ef862ef6b4bcb1805cdc520c3aa5866c0575fd3b514c5562c3caae7aec5cd6f144b57135c75b6f6cea059c3d08d1f39a9c227219d0000000000000000000000000000000000000000000000000000000000000000000000000000000000000000000000000000000000000000000000000000145fbdb2315678afecb367f032d93f642f64180aa3000000000000000000000000c080a0c04cb34014e7cca1d37fa2ff62276d77ea435bb7c8d5d486d898ad0471eedac0a05d23ed195a714e8a54174778dfd1d96821ffbdb79a821e62c29d724f27dd979c",
    "decodedTx": {
      "from": "0x90f79bf6eb2c4f870365e785982e1f101e93b906",
      "to": "0x5fbdb2315678afecb367f032d93f642f64180aa3",
      "value": "0",
      "gasLimit": "30000000",
      "nonce": 0,
      "chainId": "31337",
      "maxFeePerGas": "30000000000",
      "maxPriorityFeePerGas": "2000000000",
      "funcName": "createDelegationEvent",
      "encodedData": "0x00041499000000000000000000000000000000000000000000000000000000000000002000000000000000000000000000000000000000000000000000000000000001a00000000000000000000000000000000000000000000000000000000000000220000000000000000000000000000000000000000000000000000000000000000000000000000000000000000000000000000000000000000000000000000000000000000000000000000000000000000000000000000000000000000000000001adcaf8e3c8cc481daa3ca443678790a60000000000000000000000000000000000000000000000000000000000000000000000000000000000000000000002a09e34f54d79e400387c1cbf6689180ca3d90f2ab2c7db55f0d9a8d0a4a52a061568447feb9cae1806e08459ada07c90ec1654a2225730677c85f45202d55de455000000000000000000000000000000000000000000000000000000000000001c6d40db57597750bb2262dea6f3bfb41e3f356fcbab883b5eb40cf08c56855d2e2fc478c2bca9eff902fc922fd15d3bccbd216da9faf0ebc6d44235b5e7fdb1c1000000000000000000000000000000000000000000000000000000000000001c00000000000000000000000000000000000000000000000000000000000000410420b871f3ced029e14472ec4ebc3c0448164942b123aa6af91a3386c1c403e0ebd3b4a5752a2b6c49e574619e6aa0549eb9ccd036b9bbc507e1f7f9712a23609200000000000000000000000000000000000000000000000000000000000000000000000000000000000000000000000000000000000000000000000000004104bf6ee64a8d2fdc551ec8bb9ef862ef6b4bcb1805cdc520c3aa5866c0575fd3b514c5562c3caae7aec5cd6f144b57135c75b6f6cea059c3d08d1f39a9c227219d0000000000000000000000000000000000000000000000000000000000000000000000000000000000000000000000000000000000000000000000000000145fbdb2315678afecb367f032d93f642f64180aa3000000000000000000000000",
      "decodedData": {
        "delegatorPubkey": "0x0420b871f3ced029e14472ec4ebc3c0448164942b123aa6af91a3386c1c403e0ebd3b4a5752a2b6c49e574619e6aa0549eb9ccd036b9bbc507e1f7f9712a236092",
        "delegateePubkey": "0x04bf6ee64a8d2fdc551ec8bb9ef862ef6b4bcb1805cdc520c3aa5866c0575fd3b514c5562c3caae7aec5cd6f144b57135c75b6f6cea059c3d08d1f39a9c227219d",
        "delegationStartTime": "0",
        "delegationEndTime": "0",
        "doesRevocationRequireDelegateeSignature": true,
        "nonce": "0xadcaf8e3c8cc481daa3ca443678790a6",
        "expectedAddressOfDeployedContract": "0x5fbdb2315678afecb367f032d93f642f64180aa3",
        "rDelegatorPubkeySig": "0x9e34f54d79e400387c1cbf6689180ca3d90f2ab2c7db55f0d9a8d0a4a52a0615",
        "sDelegatorPubkeySig": "0x68447feb9cae1806e08459ada07c90ec1654a2225730677c85f45202d55de455",
        "vDelegatorPubkeySig": "28",
        "rDelegateePubkeySig": "0x6d40db57597750bb2262dea6f3bfb41e3f356fcbab883b5eb40cf08c56855d2e",
        "sDelegateePubkeySig": "0x2fc478c2bca9eff902fc922fd15d3bccbd216da9faf0ebc6d44235b5e7fdb1c1",
        "vDelegateePubkeySig": "28"
      }
    }
  },
  {
    "signedTx": "0x02f90375827a698084773594008506fc23ac008401c9c380945fbdb2315678afecb367f032d93f642f64180aa380b9030400041499000000000000000000000000000000000000000000000000000000000000002000000000000000000000000000000000000000000000000000000000000001a00000000000000000000000000000000000000000000000000000000000000220000000000000000000000000000000000000000000000000000000000000000000000000000000000000000000000000000000000000000000000000000000000000000000000000000000000000000000000000000000000000000000000001679b6cc1f97048c984cd6bab89b3a9310000000000000000000000000000000000000000000000000000000000000000000000000000000000000000000002a0428a5312bd6da64ea2886da7d6fa906c131035e995659ef4492d861785b3a4ca131932c3064d31a46cc0aa49580041e908b39741124e0ac52bc2c0f6b445b361000000000000000000000000000000000000000000000000000000000000001cc27532f9a027c333e1f67e59c7cb1777b447f264c522d366b52d44463b2c21f947dd99cbfe6460742c934735d1bd8b54fc703ea33d2812501a0918cab35b1508000000000000000000000000000000000000000000000000000000000000001c000000000000000000000000000000000000000000000000000000000000004104bf6ee64a8d2fdc551ec8bb9ef862ef6b4bcb1805cdc520c3aa5866c0575fd3b514c5562c3caae7aec5cd6f144b57135c75b6f6cea059c3d08d1f39a9c227219d00000000000000000000000000000000000000000000000000000000000000000000000000000000000000000000000000000000000000000000000000004104ba5734d8f7091719471e7f7ed6b9df170dc70cc661ca05e688601ad984f068b0d67351e5f06073092499336ab0839ef8a521afd334e53807205fa2f08eec74f40000000000000000000000000000000000000000000000000000000000000000000000000000000000000000000000000000000000000000000000000000145fbdb2315678afecb367f032d93f642f64180aa3000000000000000000000000c001a0a012e4349129c9ae11bca31497d13a6bb973c49d3e6389013450ffd441b955d5a050e7e5b009a6d8937cde39556732d9f7c93c8fb145d1854ab76788bbc2a53dcc",
    "decodedTx": {
      "from": "0x15d34aaf54267db7d7c367839aaf71a00a2c6a65",
      "to": "0x5fbdb2315678afecb367f032d93f642f64180aa3",
      "value": "0",
      "gasLimit": "30000000",
      "nonce": 0,
      "chainId": "31337",
      "maxFeePerGas": "30000000000",
      "maxPriorityFeePerGas": "2000000000",
      "funcName": "createDelegationEvent",
      "encodedData": "0x00041499000000000000000000000000000000000000000000000000000000000000002000000000000000000000000000000000000000000000000000000000000001a00000000000000000000000000000000000000000000000000000000000000220000000000000000000000000000000000000000000000000000000000000000000000000000000000000000000000000000000000000000000000000000000000000000000000000000000000000000000000000000000000000000000000001679b6cc1f97048c984cd6bab89b3a9310000000000000000000000000000000000000000000000000000000000000000000000000000000000000000000002a0428a5312bd6da64ea2886da7d6fa906c131035e995659ef4492d861785b3a4ca131932c3064d31a46cc0aa49580041e908b39741124e0ac52bc2c0f6b445b361000000000000000000000000000000000000000000000000000000000000001cc27532f9a027c333e1f67e59c7cb1777b447f264c522d366b52d44463b2c21f947dd99cbfe6460742c934735d1bd8b54fc703ea33d2812501a0918cab35b1508000000000000000000000000000000000000000000000000000000000000001c000000000000000000000000000000000000000000000000000000000000004104bf6ee64a8d2fdc551ec8bb9ef862ef6b4bcb1805cdc520c3aa5866c0575fd3b514c5562c3caae7aec5cd6f144b57135c75b6f6cea059c3d08d1f39a9c227219d00000000000000000000000000000000000000000000000000000000000000000000000000000000000000000000000000000000000000000000000000004104ba5734d8f7091719471e7f7ed6b9df170dc70cc661ca05e688601ad984f068b0d67351e5f06073092499336ab0839ef8a521afd334e53807205fa2f08eec74f40000000000000000000000000000000000000000000000000000000000000000000000000000000000000000000000000000000000000000000000000000145fbdb2315678afecb367f032d93f642f64180aa3000000000000000000000000",
      "decodedData": {
        "delegatorPubkey": "0x04bf6ee64a8d2fdc551ec8bb9ef862ef6b4bcb1805cdc520c3aa5866c0575fd3b514c5562c3caae7aec5cd6f144b57135c75b6f6cea059c3d08d1f39a9c227219d",
        "delegateePubkey": "0x04ba5734d8f7091719471e7f7ed6b9df170dc70cc661ca05e688601ad984f068b0d67351e5f06073092499336ab0839ef8a521afd334e53807205fa2f08eec74f4",
        "delegationStartTime": "0",
        "delegationEndTime": "0",
        "doesRevocationRequireDelegateeSignature": true,
        "nonce": "0x679b6cc1f97048c984cd6bab89b3a931",
        "expectedAddressOfDeployedContract": "0x5fbdb2315678afecb367f032d93f642f64180aa3",
        "rDelegatorPubkeySig": "0x428a5312bd6da64ea2886da7d6fa906c131035e995659ef4492d861785b3a4ca",
        "sDelegatorPubkeySig": "0x131932c3064d31a46cc0aa49580041e908b39741124e0ac52bc2c0f6b445b361",
        "vDelegatorPubkeySig": "28",
        "rDelegateePubkeySig": "0xc27532f9a027c333e1f67e59c7cb1777b447f264c522d366b52d44463b2c21f9",
        "sDelegateePubkeySig": "0x47dd99cbfe6460742c934735d1bd8b54fc703ea33d2812501a0918cab35b1508",
        "vDelegateePubkeySig": "28"
      }
    }
  },
  {
    "signedTx": "0x02f90375827a698084773594008506fc23ac008401c9c380945fbdb2315678afecb367f032d93f642f64180aa380b9030400041499000000000000000000000000000000000000000000000000000000000000002000000000000000000000000000000000000000000000000000000000000001a00000000000000000000000000000000000000000000000000000000000000220000000000000000000000000000000000000000000000000000000000000000000000000000000000000000000000000000000000000000000000000000000000000000000000000000000000000000000000000000000000000000000000001b14720c98ce6419386436312c480be1d0000000000000000000000000000000000000000000000000000000000000000000000000000000000000000000002a03c4bf8be97dfb584f682223398653211e9d37e030d96831c7c5f96bca8ca64842cd1234e29b4761b52982a0fe322796cd2eb8b5192c1bc22431f8c472df0a8e2000000000000000000000000000000000000000000000000000000000000001c3ebbf9dcb53329c5dded86fcf6e7a1bcb3fc1c9a823b433dc9c7aa942fdc86ce2eba954dc35685a61a39eed0b008eab1f4e3d3a9c911e11c6a277413c4b2f757000000000000000000000000000000000000000000000000000000000000001c000000000000000000000000000000000000000000000000000000000000004104ba5734d8f7091719471e7f7ed6b9df170dc70cc661ca05e688601ad984f068b0d67351e5f06073092499336ab0839ef8a521afd334e53807205fa2f08eec74f4000000000000000000000000000000000000000000000000000000000000000000000000000000000000000000000000000000000000000000000000000041048318535b54105d4a7aae60c08fc45f9687181b4fdfc625bd1a753fa7397fed753547f11ca8696646f2f3acb08e31016afac23e630c5d11f59f61fef57b0d2aa50000000000000000000000000000000000000000000000000000000000000000000000000000000000000000000000000000000000000000000000000000145fbdb2315678afecb367f032d93f642f64180aa3000000000000000000000000c001a02f66e0d6c49056259ab4f5a0f16f27791e037a052b778aceefb3e0d862fbac44a026fae7dc8363714b93fb8585b98c7bfccca6b03c642ff9ff730f9a1afbc3effd",
    "decodedTx": {
      "from": "0x70997970c51812dc3a010c7d01b50e0d17dc79c8",
      "to": "0x5fbdb2315678afecb367f032d93f642f64180aa3",
      "value": "0",
      "gasLimit": "30000000",
      "nonce": 0,
      "chainId": "31337",
      "maxFeePerGas": "30000000000",
      "maxPriorityFeePerGas": "2000000000",
      "funcName": "createDelegationEvent",
      "encodedData": "0x00041499000000000000000000000000000000000000000000000000000000000000002000000000000000000000000000000000000000000000000000000000000001a00000000000000000000000000000000000000000000000000000000000000220000000000000000000000000000000000000000000000000000000000000000000000000000000000000000000000000000000000000000000000000000000000000000000000000000000000000000000000000000000000000000000000001b14720c98ce6419386436312c480be1d0000000000000000000000000000000000000000000000000000000000000000000000000000000000000000000002a03c4bf8be97dfb584f682223398653211e9d37e030d96831c7c5f96bca8ca64842cd1234e29b4761b52982a0fe322796cd2eb8b5192c1bc22431f8c472df0a8e2000000000000000000000000000000000000000000000000000000000000001c3ebbf9dcb53329c5dded86fcf6e7a1bcb3fc1c9a823b433dc9c7aa942fdc86ce2eba954dc35685a61a39eed0b008eab1f4e3d3a9c911e11c6a277413c4b2f757000000000000000000000000000000000000000000000000000000000000001c000000000000000000000000000000000000000000000000000000000000004104ba5734d8f7091719471e7f7ed6b9df170dc70cc661ca05e688601ad984f068b0d67351e5f06073092499336ab0839ef8a521afd334e53807205fa2f08eec74f4000000000000000000000000000000000000000000000000000000000000000000000000000000000000000000000000000000000000000000000000000041048318535b54105d4a7aae60c08fc45f9687181b4fdfc625bd1a753fa7397fed753547f11ca8696646f2f3acb08e31016afac23e630c5d11f59f61fef57b0d2aa50000000000000000000000000000000000000000000000000000000000000000000000000000000000000000000000000000000000000000000000000000145fbdb2315678afecb367f032d93f642f64180aa3000000000000000000000000",
      "decodedData": {
        "delegatorPubkey": "0x04ba5734d8f7091719471e7f7ed6b9df170dc70cc661ca05e688601ad984f068b0d67351e5f06073092499336ab0839ef8a521afd334e53807205fa2f08eec74f4",
        "delegateePubkey": "0x048318535b54105d4a7aae60c08fc45f9687181b4fdfc625bd1a753fa7397fed753547f11ca8696646f2f3acb08e31016afac23e630c5d11f59f61fef57b0d2aa5",
        "delegationStartTime": "0",
        "delegationEndTime": "0",
        "doesRevocationRequireDelegateeSignature": true,
        "nonce": "0xb14720c98ce6419386436312c480be1d",
        "expectedAddressOfDeployedContract": "0x5fbdb2315678afecb367f032d93f642f64180aa3",
        "rDelegatorPubkeySig": "0x3c4bf8be97dfb584f682223398653211e9d37e030d96831c7c5f96bca8ca6484",
        "sDelegatorPubkeySig": "0x2cd1234e29b4761b52982a0fe322796cd2eb8b5192c1bc22431f8c472df0a8e2",
        "vDelegatorPubkeySig": "28",
        "rDelegateePubkeySig": "0x3ebbf9dcb53329c5dded86fcf6e7a1bcb3fc1c9a823b433dc9c7aa942fdc86ce",
        "sDelegateePubkeySig": "0x2eba954dc35685a61a39eed0b008eab1f4e3d3a9c911e11c6a277413c4b2f757",
        "vDelegateePubkeySig": "28"
      }
    }
  },
  {
    "signedTx": "0x02f90355827a690184773594008506fc23ac008401c9c380945fbdb2315678afecb367f032d93f642f64180aa380b902e4644ae9d50000000000000000000000000000000000000000000000000000000000000020000000000000000000000000000000000000000000000000000000000000018000000000000000000000000000000000000000000000000000000000000002000000000000000000000000000000000000000000000000000000000000000000000000000000000000000000000000000000000000000000000000000000000073f167bea1954729af7754d20247f7e50000000000000000000000000000000000000000000000000000000000000000000000000000000000000000000002804632af59eee39bda405f2d87cf23b04b9434325e353408ff14843cc36229d22079230f1f110b6b187db84a4bafd4bd44d080088fb134544cbc2f4e7501555762000000000000000000000000000000000000000000000000000000000000001b692eea5d30592261716a1b9d82875039c45bc9edefba08fa0e03f4712f3b74d1286f6ab970aff1212a75382bedccaf12c6ec0e927a93b16b313ca13a0052170a000000000000000000000000000000000000000000000000000000000000001c00000000000000000000000000000000000000000000000000000000000000410420b871f3ced029e14472ec4ebc3c0448164942b123aa6af91a3386c1c403e0ebd3b4a5752a2b6c49e574619e6aa0549eb9ccd036b9bbc507e1f7f9712a23609200000000000000000000000000000000000000000000000000000000000000000000000000000000000000000000000000000000000000000000000000004104bf6ee64a8d2fdc551ec8bb9ef862ef6b4bcb1805cdc520c3aa5866c0575fd3b514c5562c3caae7aec5cd6f144b57135c75b6f6cea059c3d08d1f39a9c227219d0000000000000000000000000000000000000000000000000000000000000000000000000000000000000000000000000000000000000000000000000000145fbdb2315678afecb367f032d93f642f64180aa3000000000000000000000000c001a0b71ead090ee9939029860dc337a2187d32887f4fb7fc42f57531109986a4b0f2a018d443b7d9bbc0171e60b76e01d55f335849eb1bd50fcaa88ffdea5300e9e793",
    "decodedTx": {
      "from": "0x90f79bf6eb2c4f870365e785982e1f101e93b906",
      "to": "0x5fbdb2315678afecb367f032d93f642f64180aa3",
      "value": "0",
      "gasLimit": "30000000",
      "nonce": 1,
      "chainId": "31337",
      "maxFeePerGas": "30000000000",
      "maxPriorityFeePerGas": "2000000000",
      "funcName": "createRevocationEvent",
      "encodedData": "0x644ae9d50000000000000000000000000000000000000000000000000000000000000020000000000000000000000000000000000000000000000000000000000000018000000000000000000000000000000000000000000000000000000000000002000000000000000000000000000000000000000000000000000000000000000000000000000000000000000000000000000000000000000000000000000000000073f167bea1954729af7754d20247f7e50000000000000000000000000000000000000000000000000000000000000000000000000000000000000000000002804632af59eee39bda405f2d87cf23b04b9434325e353408ff14843cc36229d22079230f1f110b6b187db84a4bafd4bd44d080088fb134544cbc2f4e7501555762000000000000000000000000000000000000000000000000000000000000001b692eea5d30592261716a1b9d82875039c45bc9edefba08fa0e03f4712f3b74d1286f6ab970aff1212a75382bedccaf12c6ec0e927a93b16b313ca13a0052170a000000000000000000000000000000000000000000000000000000000000001c00000000000000000000000000000000000000000000000000000000000000410420b871f3ced029e14472ec4ebc3c0448164942b123aa6af91a3386c1c403e0ebd3b4a5752a2b6c49e574619e6aa0549eb9ccd036b9bbc507e1f7f9712a23609200000000000000000000000000000000000000000000000000000000000000000000000000000000000000000000000000000000000000000000000000004104bf6ee64a8d2fdc551ec8bb9ef862ef6b4bcb1805cdc520c3aa5866c0575fd3b514c5562c3caae7aec5cd6f144b57135c75b6f6cea059c3d08d1f39a9c227219d0000000000000000000000000000000000000000000000000000000000000000000000000000000000000000000000000000000000000000000000000000145fbdb2315678afecb367f032d93f642f64180aa3000000000000000000000000",
      "decodedData": {
        "revokerPubkey": "0x0420b871f3ced029e14472ec4ebc3c0448164942b123aa6af91a3386c1c403e0ebd3b4a5752a2b6c49e574619e6aa0549eb9ccd036b9bbc507e1f7f9712a236092",
        "revokeePubkey": "0x04bf6ee64a8d2fdc551ec8bb9ef862ef6b4bcb1805cdc520c3aa5866c0575fd3b514c5562c3caae7aec5cd6f144b57135c75b6f6cea059c3d08d1f39a9c227219d",
        "revocationStartTime": "0",
        "revocationEndTime": "0",
        "nonce": "0x73f167bea1954729af7754d20247f7e5",
        "expectedAddressOfDeployedContract": "0x5fbdb2315678afecb367f032d93f642f64180aa3",
        "rRevokerPubkeySig": "0x4632af59eee39bda405f2d87cf23b04b9434325e353408ff14843cc36229d220",
        "sRevokerPubkeySig": "0x79230f1f110b6b187db84a4bafd4bd44d080088fb134544cbc2f4e7501555762",
        "vRevokerPubkeySig": "27",
        "rRevokeePubkeySig": "0x692eea5d30592261716a1b9d82875039c45bc9edefba08fa0e03f4712f3b74d1",
        "sRevokeePubkeySig": "0x286f6ab970aff1212a75382bedccaf12c6ec0e927a93b16b313ca13a0052170a",
        "vRevokeePubkeySig": "28"
      }
    }
  },
  {
    "signedTx": "0x02f90355827a690184773594008506fc23ac008401c9c380945fbdb2315678afecb367f032d93f642f64180aa380b902e4644ae9d500000000000000000000000000000000000000000000000000000000000000200000000000000000000000000000000000000000000000000000000000000180000000000000000000000000000000000000000000000000000000000000020000000000000000000000000000000000000000000000000000000000000000000000000000000000000000000000000000000000000000000000000000000000299d63c617a348d886b8a84b4b4c345d000000000000000000000000000000000000000000000000000000000000000000000000000000000000000000000280a6194d1ed69176bab318ee0d42ef9ab6f8ed19b5e1d70f3325c446fc649ec1c32e9055aa0c0c6442faf337669d96afd97c780df95f66b3e453adc45ff495f5ca000000000000000000000000000000000000000000000000000000000000001b5dfacf759f319fb463abc3fa3214fb6e287dee4a39cb5c164fe01269c21a5ce43a8cd708a0ccf76d4b9cc6e2a5414fd03d80a6fbb82272ae078a60edb4c48b69000000000000000000000000000000000000000000000000000000000000001b0000000000000000000000000000000000000000000000000000000000000041049d9031e97dd78ff8c15aa86939de9b1e791066a0224e331bc962a2099a7b1f0464b8bbafe1535f2301c72c2cb3535b172da30b02686ab0393d348614f157fbdb0000000000000000000000000000000000000000000000000000000000000000000000000000000000000000000000000000000000000000000000000000410420b871f3ced029e14472ec4ebc3c0448164942b123aa6af91a3386c1c403e0ebd3b4a5752a2b6c49e574619e6aa0549eb9ccd036b9bbc507e1f7f9712a2360920000000000000000000000000000000000000000000000000000000000000000000000000000000000000000000000000000000000000000000000000000145fbdb2315678afecb367f032d93f642f64180aa3000000000000000000000000c080a0f5a471915b58704bd61e4a2753c930965a14acbd53018b911e0481b762bc8462a01b8a0c10a2f5b3478055fed99e34586ef38fe994c026892c52c7ee8952849ec4",
    "decodedTx": {
      "from": "0x3c44cdddb6a900fa2b585dd299e03d12fa4293bc",
      "to": "0x5fbdb2315678afecb367f032d93f642f64180aa3",
      "value": "0",
      "gasLimit": "30000000",
      "nonce": 1,
      "chainId": "31337",
      "maxFeePerGas": "30000000000",
      "maxPriorityFeePerGas": "2000000000",
      "funcName": "createRevocationEvent",
      "encodedData": "0x644ae9d500000000000000000000000000000000000000000000000000000000000000200000000000000000000000000000000000000000000000000000000000000180000000000000000000000000000000000000000000000000000000000000020000000000000000000000000000000000000000000000000000000000000000000000000000000000000000000000000000000000000000000000000000000000299d63c617a348d886b8a84b4b4c345d000000000000000000000000000000000000000000000000000000000000000000000000000000000000000000000280a6194d1ed69176bab318ee0d42ef9ab6f8ed19b5e1d70f3325c446fc649ec1c32e9055aa0c0c6442faf337669d96afd97c780df95f66b3e453adc45ff495f5ca000000000000000000000000000000000000000000000000000000000000001b5dfacf759f319fb463abc3fa3214fb6e287dee4a39cb5c164fe01269c21a5ce43a8cd708a0ccf76d4b9cc6e2a5414fd03d80a6fbb82272ae078a60edb4c48b69000000000000000000000000000000000000000000000000000000000000001b0000000000000000000000000000000000000000000000000000000000000041049d9031e97dd78ff8c15aa86939de9b1e791066a0224e331bc962a2099a7b1f0464b8bbafe1535f2301c72c2cb3535b172da30b02686ab0393d348614f157fbdb0000000000000000000000000000000000000000000000000000000000000000000000000000000000000000000000000000000000000000000000000000410420b871f3ced029e14472ec4ebc3c0448164942b123aa6af91a3386c1c403e0ebd3b4a5752a2b6c49e574619e6aa0549eb9ccd036b9bbc507e1f7f9712a2360920000000000000000000000000000000000000000000000000000000000000000000000000000000000000000000000000000000000000000000000000000145fbdb2315678afecb367f032d93f642f64180aa3000000000000000000000000",
      "decodedData": {
        "revokerPubkey": "0x049d9031e97dd78ff8c15aa86939de9b1e791066a0224e331bc962a2099a7b1f0464b8bbafe1535f2301c72c2cb3535b172da30b02686ab0393d348614f157fbdb",
        "revokeePubkey": "0x0420b871f3ced029e14472ec4ebc3c0448164942b123aa6af91a3386c1c403e0ebd3b4a5752a2b6c49e574619e6aa0549eb9ccd036b9bbc507e1f7f9712a236092",
        "revocationStartTime": "0",
        "revocationEndTime": "0",
        "nonce": "0x299d63c617a348d886b8a84b4b4c345d",
        "expectedAddressOfDeployedContract": "0x5fbdb2315678afecb367f032d93f642f64180aa3",
        "rRevokerPubkeySig": "0xa6194d1ed69176bab318ee0d42ef9ab6f8ed19b5e1d70f3325c446fc649ec1c3",
        "sRevokerPubkeySig": "0x2e9055aa0c0c6442faf337669d96afd97c780df95f66b3e453adc45ff495f5ca",
        "vRevokerPubkeySig": "27",
        "rRevokeePubkeySig": "0x5dfacf759f319fb463abc3fa3214fb6e287dee4a39cb5c164fe01269c21a5ce4",
        "sRevokeePubkeySig": "0x3a8cd708a0ccf76d4b9cc6e2a5414fd03d80a6fbb82272ae078a60edb4c48b69",
        "vRevokeePubkeySig": "27"
      }
    }
  },
  {
    "signedTx": "0x02f90375827a690284773594008506fc23ac008401c9c380945fbdb2315678afecb367f032d93f642f64180aa380b9030400041499000000000000000000000000000000000000000000000000000000000000002000000000000000000000000000000000000000000000000000000000000001a00000000000000000000000000000000000000000000000000000000000000220000000000000000000000000000000000000000000000000000000000000000000000000000000000000000000000000000000000000000000000000000000000000000000000000000000000000000000000000000000000000000000000000cf4b0a4e1c6d443fae74ad396b8a58840000000000000000000000000000000000000000000000000000000000000000000000000000000000000000000002a0c96c631b164e7014cf9c83dc08cdadf1ecc94d758fa0b83d77fb357faa7a8424577a2b7691e8c3d0d675df1a6c736517833ef89e198266187c491629eb33191c000000000000000000000000000000000000000000000000000000000000001ce77237819a2e1beb25f13acda3b01f67b057931912b06b61b1a4f5b22a05e85804c5eaabb699545f4c6e69dfdef72716a4e0da51ac0a7ed31d9444ce094ce528000000000000000000000000000000000000000000000000000000000000001b00000000000000000000000000000000000000000000000000000000000000410420b871f3ced029e14472ec4ebc3c0448164942b123aa6af91a3386c1c403e0ebd3b4a5752a2b6c49e574619e6aa0549eb9ccd036b9bbc507e1f7f9712a23609200000000000000000000000000000000000000000000000000000000000000000000000000000000000000000000000000000000000000000000000000004104bf6ee64a8d2fdc551ec8bb9ef862ef6b4bcb1805cdc520c3aa5866c0575fd3b514c5562c3caae7aec5cd6f144b57135c75b6f6cea059c3d08d1f39a9c227219d0000000000000000000000000000000000000000000000000000000000000000000000000000000000000000000000000000000000000000000000000000145fbdb2315678afecb367f032d93f642f64180aa3000000000000000000000000c080a032415d0670ac5ed50e0107486339c6790bd049cbbf2aa26afbe8aad93c8bf452a052edc6190f615011018d12123dca31f6a7cbf19341049a80820518e4d9f9ddbd",
    "decodedTx": {
      "from": "0x90f79bf6eb2c4f870365e785982e1f101e93b906",
      "to": "0x5fbdb2315678afecb367f032d93f642f64180aa3",
      "value": "0",
      "gasLimit": "30000000",
      "nonce": 2,
      "chainId": "31337",
      "maxFeePerGas": "30000000000",
      "maxPriorityFeePerGas": "2000000000",
      "funcName": "createDelegationEvent",
      "encodedData": "0x00041499000000000000000000000000000000000000000000000000000000000000002000000000000000000000000000000000000000000000000000000000000001a00000000000000000000000000000000000000000000000000000000000000220000000000000000000000000000000000000000000000000000000000000000000000000000000000000000000000000000000000000000000000000000000000000000000000000000000000000000000000000000000000000000000000000cf4b0a4e1c6d443fae74ad396b8a58840000000000000000000000000000000000000000000000000000000000000000000000000000000000000000000002a0c96c631b164e7014cf9c83dc08cdadf1ecc94d758fa0b83d77fb357faa7a8424577a2b7691e8c3d0d675df1a6c736517833ef89e198266187c491629eb33191c000000000000000000000000000000000000000000000000000000000000001ce77237819a2e1beb25f13acda3b01f67b057931912b06b61b1a4f5b22a05e85804c5eaabb699545f4c6e69dfdef72716a4e0da51ac0a7ed31d9444ce094ce528000000000000000000000000000000000000000000000000000000000000001b00000000000000000000000000000000000000000000000000000000000000410420b871f3ced029e14472ec4ebc3c0448164942b123aa6af91a3386c1c403e0ebd3b4a5752a2b6c49e574619e6aa0549eb9ccd036b9bbc507e1f7f9712a23609200000000000000000000000000000000000000000000000000000000000000000000000000000000000000000000000000000000000000000000000000004104bf6ee64a8d2fdc551ec8bb9ef862ef6b4bcb1805cdc520c3aa5866c0575fd3b514c5562c3caae7aec5cd6f144b57135c75b6f6cea059c3d08d1f39a9c227219d0000000000000000000000000000000000000000000000000000000000000000000000000000000000000000000000000000000000000000000000000000145fbdb2315678afecb367f032d93f642f64180aa3000000000000000000000000",
      "decodedData": {
        "delegatorPubkey": "0x0420b871f3ced029e14472ec4ebc3c0448164942b123aa6af91a3386c1c403e0ebd3b4a5752a2b6c49e574619e6aa0549eb9ccd036b9bbc507e1f7f9712a236092",
        "delegateePubkey": "0x04bf6ee64a8d2fdc551ec8bb9ef862ef6b4bcb1805cdc520c3aa5866c0575fd3b514c5562c3caae7aec5cd6f144b57135c75b6f6cea059c3d08d1f39a9c227219d",
        "delegationStartTime": "0",
        "delegationEndTime": "0",
        "doesRevocationRequireDelegateeSignature": false,
        "nonce": "0xcf4b0a4e1c6d443fae74ad396b8a5884",
        "expectedAddressOfDeployedContract": "0x5fbdb2315678afecb367f032d93f642f64180aa3",
        "rDelegatorPubkeySig": "0xc96c631b164e7014cf9c83dc08cdadf1ecc94d758fa0b83d77fb357faa7a8424",
        "sDelegatorPubkeySig": "0x577a2b7691e8c3d0d675df1a6c736517833ef89e198266187c491629eb33191c",
        "vDelegatorPubkeySig": "28",
        "rDelegateePubkeySig": "0xe77237819a2e1beb25f13acda3b01f67b057931912b06b61b1a4f5b22a05e858",
        "sDelegateePubkeySig": "0x04c5eaabb699545f4c6e69dfdef72716a4e0da51ac0a7ed31d9444ce094ce528",
        "vDelegateePubkeySig": "27"
      }
    }
  },
  {
    "signedTx": "0x02f90375827a690284773594008506fc23ac008401c9c380945fbdb2315678afecb367f032d93f642f64180aa380b9030400041499000000000000000000000000000000000000000000000000000000000000002000000000000000000000000000000000000000000000000000000000000001a00000000000000000000000000000000000000000000000000000000000000220000000000000000000000000000000000000000000000000000000000000000000000000000000000000000000000000000000000000000000000000000000000000000000000000000000000000000000000000000000000000000000000000d28c8963d62a4666baaf7f0710b0235b0000000000000000000000000000000000000000000000000000000000000000000000000000000000000000000002a09591dfbd0edb34d7360664538a78d392b29eaddecdb77232e1f389fc4e7304d13f1160417ae2195eea9b625be0dba2f55cadd0f2100ccb56ed7e34103497ed50000000000000000000000000000000000000000000000000000000000000001b88b99ac345187ebeae618360d4240d769ed5b47226443baa9991aff3c95ce8f6224cf23ae8dafa28ad39d21e6961457fe02365949cdf122fff2aef99917334b8000000000000000000000000000000000000000000000000000000000000001c0000000000000000000000000000000000000000000000000000000000000041049d9031e97dd78ff8c15aa86939de9b1e791066a0224e331bc962a2099a7b1f0464b8bbafe1535f2301c72c2cb3535b172da30b02686ab0393d348614f157fbdb0000000000000000000000000000000000000000000000000000000000000000000000000000000000000000000000000000000000000000000000000000410420b871f3ced029e14472ec4ebc3c0448164942b123aa6af91a3386c1c403e0ebd3b4a5752a2b6c49e574619e6aa0549eb9ccd036b9bbc507e1f7f9712a2360920000000000000000000000000000000000000000000000000000000000000000000000000000000000000000000000000000000000000000000000000000145fbdb2315678afecb367f032d93f642f64180aa3000000000000000000000000c001a0f7d71189c83d28b2b11cec15b70f274eefdc030bd2e6d94f3015c20504b5529ca0689b3421729027dc427c173f4c1a6dbe6351e17d55d119584cf198ebaa70aac6",
    "decodedTx": {
      "from": "0x3c44cdddb6a900fa2b585dd299e03d12fa4293bc",
      "to": "0x5fbdb2315678afecb367f032d93f642f64180aa3",
      "value": "0",
      "gasLimit": "30000000",
      "nonce": 2,
      "chainId": "31337",
      "maxFeePerGas": "30000000000",
      "maxPriorityFeePerGas": "2000000000",
      "funcName": "createDelegationEvent",
      "encodedData": "0x00041499000000000000000000000000000000000000000000000000000000000000002000000000000000000000000000000000000000000000000000000000000001a00000000000000000000000000000000000000000000000000000000000000220000000000000000000000000000000000000000000000000000000000000000000000000000000000000000000000000000000000000000000000000000000000000000000000000000000000000000000000000000000000000000000000000d28c8963d62a4666baaf7f0710b0235b0000000000000000000000000000000000000000000000000000000000000000000000000000000000000000000002a09591dfbd0edb34d7360664538a78d392b29eaddecdb77232e1f389fc4e7304d13f1160417ae2195eea9b625be0dba2f55cadd0f2100ccb56ed7e34103497ed50000000000000000000000000000000000000000000000000000000000000001b88b99ac345187ebeae618360d4240d769ed5b47226443baa9991aff3c95ce8f6224cf23ae8dafa28ad39d21e6961457fe02365949cdf122fff2aef99917334b8000000000000000000000000000000000000000000000000000000000000001c0000000000000000000000000000000000000000000000000000000000000041049d9031e97dd78ff8c15aa86939de9b1e791066a0224e331bc962a2099a7b1f0464b8bbafe1535f2301c72c2cb3535b172da30b02686ab0393d348614f157fbdb0000000000000000000000000000000000000000000000000000000000000000000000000000000000000000000000000000000000000000000000000000410420b871f3ced029e14472ec4ebc3c0448164942b123aa6af91a3386c1c403e0ebd3b4a5752a2b6c49e574619e6aa0549eb9ccd036b9bbc507e1f7f9712a2360920000000000000000000000000000000000000000000000000000000000000000000000000000000000000000000000000000000000000000000000000000145fbdb2315678afecb367f032d93f642f64180aa3000000000000000000000000",
      "decodedData": {
        "delegatorPubkey": "0x049d9031e97dd78ff8c15aa86939de9b1e791066a0224e331bc962a2099a7b1f0464b8bbafe1535f2301c72c2cb3535b172da30b02686ab0393d348614f157fbdb",
        "delegateePubkey": "0x0420b871f3ced029e14472ec4ebc3c0448164942b123aa6af91a3386c1c403e0ebd3b4a5752a2b6c49e574619e6aa0549eb9ccd036b9bbc507e1f7f9712a236092",
        "delegationStartTime": "0",
        "delegationEndTime": "0",
        "doesRevocationRequireDelegateeSignature": false,
        "nonce": "0xd28c8963d62a4666baaf7f0710b0235b",
        "expectedAddressOfDeployedContract": "0x5fbdb2315678afecb367f032d93f642f64180aa3",
        "rDelegatorPubkeySig": "0x9591dfbd0edb34d7360664538a78d392b29eaddecdb77232e1f389fc4e7304d1",
        "sDelegatorPubkeySig": "0x3f1160417ae2195eea9b625be0dba2f55cadd0f2100ccb56ed7e34103497ed50",
        "vDelegatorPubkeySig": "27",
        "rDelegateePubkeySig": "0x88b99ac345187ebeae618360d4240d769ed5b47226443baa9991aff3c95ce8f6",
        "sDelegateePubkeySig": "0x224cf23ae8dafa28ad39d21e6961457fe02365949cdf122fff2aef99917334b8",
        "vDelegateePubkeySig": "28"
      }
    }
  },
  {
    "signedTx": "0x02f90355827a690184773594008506fc23ac008401c9c380945fbdb2315678afecb367f032d93f642f64180aa380b902e4644ae9d500000000000000000000000000000000000000000000000000000000000000200000000000000000000000000000000000000000000000000000000000000180000000000000000000000000000000000000000000000000000000000000020000000000000000000000000000000000000000000000000000000000000000000000000000000000000000000000000000000000000000000000000000000000c14773c490524b55a2634f0f28ed1c47000000000000000000000000000000000000000000000000000000000000000000000000000000000000000000000280976cf62d80a682435db77483553d1606bc8022877a78238a5f820a597d9604f92ecac06e88a98379dbc77c27ed358f489496cd371d5758dffacf20cd4d2cf88d000000000000000000000000000000000000000000000000000000000000001b000000000000000000000000000000000000000000000000000000000000000000000000000000000000000000000000000000000000000000000000000000000000000000000000000000000000000000000000000000000000000000000000000000000000000000000000000000000000000000000000000000000000004104bf6ee64a8d2fdc551ec8bb9ef862ef6b4bcb1805cdc520c3aa5866c0575fd3b514c5562c3caae7aec5cd6f144b57135c75b6f6cea059c3d08d1f39a9c227219d00000000000000000000000000000000000000000000000000000000000000000000000000000000000000000000000000000000000000000000000000004104ba5734d8f7091719471e7f7ed6b9df170dc70cc661ca05e688601ad984f068b0d67351e5f06073092499336ab0839ef8a521afd334e53807205fa2f08eec74f40000000000000000000000000000000000000000000000000000000000000000000000000000000000000000000000000000000000000000000000000000145fbdb2315678afecb367f032d93f642f64180aa3000000000000000000000000c080a0ed21364fd7d3620ba6b81436768e3b209329387731c26a69e749e7a5a58bd5aba045c3267af1a98190ca7b39c5e391c6ed9026aff7e668f70721ba6565c5f9aeff",
    "decodedTx": {
      "from": "0x15d34aaf54267db7d7c367839aaf71a00a2c6a65",
      "to": "0x5fbdb2315678afecb367f032d93f642f64180aa3",
      "value": "0",
      "gasLimit": "30000000",
      "nonce": 1,
      "chainId": "31337",
      "maxFeePerGas": "30000000000",
      "maxPriorityFeePerGas": "2000000000",
      "funcName": "createRevocationEvent",
      "encodedData": "0x644ae9d500000000000000000000000000000000000000000000000000000000000000200000000000000000000000000000000000000000000000000000000000000180000000000000000000000000000000000000000000000000000000000000020000000000000000000000000000000000000000000000000000000000000000000000000000000000000000000000000000000000000000000000000000000000c14773c490524b55a2634f0f28ed1c47000000000000000000000000000000000000000000000000000000000000000000000000000000000000000000000280976cf62d80a682435db77483553d1606bc8022877a78238a5f820a597d9604f92ecac06e88a98379dbc77c27ed358f489496cd371d5758dffacf20cd4d2cf88d000000000000000000000000000000000000000000000000000000000000001b000000000000000000000000000000000000000000000000000000000000000000000000000000000000000000000000000000000000000000000000000000000000000000000000000000000000000000000000000000000000000000000000000000000000000000000000000000000000000000000000000000000000004104bf6ee64a8d2fdc551ec8bb9ef862ef6b4bcb1805cdc520c3aa5866c0575fd3b514c5562c3caae7aec5cd6f144b57135c75b6f6cea059c3d08d1f39a9c227219d00000000000000000000000000000000000000000000000000000000000000000000000000000000000000000000000000000000000000000000000000004104ba5734d8f7091719471e7f7ed6b9df170dc70cc661ca05e688601ad984f068b0d67351e5f06073092499336ab0839ef8a521afd334e53807205fa2f08eec74f40000000000000000000000000000000000000000000000000000000000000000000000000000000000000000000000000000000000000000000000000000145fbdb2315678afecb367f032d93f642f64180aa3000000000000000000000000",
      "decodedData": {
        "revokerPubkey": "0x04bf6ee64a8d2fdc551ec8bb9ef862ef6b4bcb1805cdc520c3aa5866c0575fd3b514c5562c3caae7aec5cd6f144b57135c75b6f6cea059c3d08d1f39a9c227219d",
        "revokeePubkey": "0x04ba5734d8f7091719471e7f7ed6b9df170dc70cc661ca05e688601ad984f068b0d67351e5f06073092499336ab0839ef8a521afd334e53807205fa2f08eec74f4",
        "revocationStartTime": "0",
        "revocationEndTime": "0",
        "nonce": "0xc14773c490524b55a2634f0f28ed1c47",
        "expectedAddressOfDeployedContract": "0x5fbdb2315678afecb367f032d93f642f64180aa3",
        "rRevokerPubkeySig": "0x976cf62d80a682435db77483553d1606bc8022877a78238a5f820a597d9604f9",
        "sRevokerPubkeySig": "0x2ecac06e88a98379dbc77c27ed358f489496cd371d5758dffacf20cd4d2cf88d",
        "vRevokerPubkeySig": "27",
        "rRevokeePubkeySig": "0x0000000000000000000000000000000000000000000000000000000000000000",
        "sRevokeePubkeySig": "0x0000000000000000000000000000000000000000000000000000000000000000",
        "vRevokeePubkeySig": "0"
      }
    }
  },
  {
    "signedTx": "0x02f90355827a690384773594008506fc23ac008401c9c380945fbdb2315678afecb367f032d93f642f64180aa380b902e4644ae9d500000000000000000000000000000000000000000000000000000000000000200000000000000000000000000000000000000000000000000000000000000180000000000000000000000000000000000000000000000000000000000000020000000000000000000000000000000000000000000000000000000000000000000000000000000000000000000000000000000000000000000000000000000000315dc02d0ae5497686d32c9aed27f3c9000000000000000000000000000000000000000000000000000000000000000000000000000000000000000000000280b063ce41bfb30761b3ef6b567030a67004ec87aac9f6806181273cd08e2f4d746655932500377fe168e7e32b2a8b08add8344febc93b2e0a295b01cde405efad000000000000000000000000000000000000000000000000000000000000001b00000000000000000000000000000000000000000000000000000000000000000000000000000000000000000000000000000000000000000000000000000000000000000000000000000000000000000000000000000000000000000000000000000000000000000000000000000000000000000000000000000000000000410420b871f3ced029e14472ec4ebc3c0448164942b123aa6af91a3386c1c403e0ebd3b4a5752a2b6c49e574619e6aa0549eb9ccd036b9bbc507e1f7f9712a23609200000000000000000000000000000000000000000000000000000000000000000000000000000000000000000000000000000000000000000000000000004104bf6ee64a8d2fdc551ec8bb9ef862ef6b4bcb1805cdc520c3aa5866c0575fd3b514c5562c3caae7aec5cd6f144b57135c75b6f6cea059c3d08d1f39a9c227219d0000000000000000000000000000000000000000000000000000000000000000000000000000000000000000000000000000000000000000000000000000145fbdb2315678afecb367f032d93f642f64180aa3000000000000000000000000c080a0388d694f7f131364ad64c24f7eb44392b0311fb6130dc7f92ad87ffe82d111c2a054fb3ee5d456dd2633817e2adb1fc71076694b81a4ab93768d23d615d81e84fe",
    "decodedTx": {
      "from": "0x90f79bf6eb2c4f870365e785982e1f101e93b906",
      "to": "0x5fbdb2315678afecb367f032d93f642f64180aa3",
      "value": "0",
      "gasLimit": "30000000",
      "nonce": 3,
      "chainId": "31337",
      "maxFeePerGas": "30000000000",
      "maxPriorityFeePerGas": "2000000000",
      "funcName": "createRevocationEvent",
      "encodedData": "0x644ae9d500000000000000000000000000000000000000000000000000000000000000200000000000000000000000000000000000000000000000000000000000000180000000000000000000000000000000000000000000000000000000000000020000000000000000000000000000000000000000000000000000000000000000000000000000000000000000000000000000000000000000000000000000000000315dc02d0ae5497686d32c9aed27f3c9000000000000000000000000000000000000000000000000000000000000000000000000000000000000000000000280b063ce41bfb30761b3ef6b567030a67004ec87aac9f6806181273cd08e2f4d746655932500377fe168e7e32b2a8b08add8344febc93b2e0a295b01cde405efad000000000000000000000000000000000000000000000000000000000000001b00000000000000000000000000000000000000000000000000000000000000000000000000000000000000000000000000000000000000000000000000000000000000000000000000000000000000000000000000000000000000000000000000000000000000000000000000000000000000000000000000000000000000410420b871f3ced029e14472ec4ebc3c0448164942b123aa6af91a3386c1c403e0ebd3b4a5752a2b6c49e574619e6aa0549eb9ccd036b9bbc507e1f7f9712a23609200000000000000000000000000000000000000000000000000000000000000000000000000000000000000000000000000000000000000000000000000004104bf6ee64a8d2fdc551ec8bb9ef862ef6b4bcb1805cdc520c3aa5866c0575fd3b514c5562c3caae7aec5cd6f144b57135c75b6f6cea059c3d08d1f39a9c227219d0000000000000000000000000000000000000000000000000000000000000000000000000000000000000000000000000000000000000000000000000000145fbdb2315678afecb367f032d93f642f64180aa3000000000000000000000000",
      "decodedData": {
        "revokerPubkey": "0x0420b871f3ced029e14472ec4ebc3c0448164942b123aa6af91a3386c1c403e0ebd3b4a5752a2b6c49e574619e6aa0549eb9ccd036b9bbc507e1f7f9712a236092",
        "revokeePubkey": "0x04bf6ee64a8d2fdc551ec8bb9ef862ef6b4bcb1805cdc520c3aa5866c0575fd3b514c5562c3caae7aec5cd6f144b57135c75b6f6cea059c3d08d1f39a9c227219d",
        "revocationStartTime": "0",
        "revocationEndTime": "0",
        "nonce": "0x315dc02d0ae5497686d32c9aed27f3c9",
        "expectedAddressOfDeployedContract": "0x5fbdb2315678afecb367f032d93f642f64180aa3",
        "rRevokerPubkeySig": "0xb063ce41bfb30761b3ef6b567030a67004ec87aac9f6806181273cd08e2f4d74",
        "sRevokerPubkeySig": "0x6655932500377fe168e7e32b2a8b08add8344febc93b2e0a295b01cde405efad",
        "vRevokerPubkeySig": "27",
        "rRevokeePubkeySig": "0x0000000000000000000000000000000000000000000000000000000000000000",
        "sRevokeePubkeySig": "0x0000000000000000000000000000000000000000000000000000000000000000",
        "vRevokeePubkeySig": "0"
      }
    }
  },
  {
    "signedTx": "0x02f90355827a690384773594008506fc23ac008401c9c380945fbdb2315678afecb367f032d93f642f64180aa380b902e4644ae9d500000000000000000000000000000000000000000000000000000000000000200000000000000000000000000000000000000000000000000000000000000180000000000000000000000000000000000000000000000000000000000000020000000000000000000000000000000000000000000000000000000000000000000000000000000000000000000000000000000000000000000000000000000000b1d7d6f889764d8faa34fc35e1e85101000000000000000000000000000000000000000000000000000000000000000000000000000000000000000000000280b3740c52dd0e63ab6b951bf37c47e4e6ff806be5ea207edf2fbd6b38402de3097ebc24d08e81284c6469825c1a106ac9f5121f36a9a0a58ddb7a35b206071ab9000000000000000000000000000000000000000000000000000000000000001c0000000000000000000000000000000000000000000000000000000000000000000000000000000000000000000000000000000000000000000000000000000000000000000000000000000000000000000000000000000000000000000000000000000000000000000000000000000000000000000000000000000000000041049d9031e97dd78ff8c15aa86939de9b1e791066a0224e331bc962a2099a7b1f0464b8bbafe1535f2301c72c2cb3535b172da30b02686ab0393d348614f157fbdb0000000000000000000000000000000000000000000000000000000000000000000000000000000000000000000000000000000000000000000000000000410420b871f3ced029e14472ec4ebc3c0448164942b123aa6af91a3386c1c403e0ebd3b4a5752a2b6c49e574619e6aa0549eb9ccd036b9bbc507e1f7f9712a2360920000000000000000000000000000000000000000000000000000000000000000000000000000000000000000000000000000000000000000000000000000145fbdb2315678afecb367f032d93f642f64180aa3000000000000000000000000c001a0a9f4721344bfe8a3521e03a7c9979552a167cee3992738caf56aeb04cc4b3633a018958ac55843131a69dce8b7699a823a8e2443fa75ae778d71c3ac1274d7de33",
    "decodedTx": {
      "from": "0x3c44cdddb6a900fa2b585dd299e03d12fa4293bc",
      "to": "0x5fbdb2315678afecb367f032d93f642f64180aa3",
      "value": "0",
      "gasLimit": "30000000",
      "nonce": 3,
      "chainId": "31337",
      "maxFeePerGas": "30000000000",
      "maxPriorityFeePerGas": "2000000000",
      "funcName": "createRevocationEvent",
      "encodedData": "0x644ae9d500000000000000000000000000000000000000000000000000000000000000200000000000000000000000000000000000000000000000000000000000000180000000000000000000000000000000000000000000000000000000000000020000000000000000000000000000000000000000000000000000000000000000000000000000000000000000000000000000000000000000000000000000000000b1d7d6f889764d8faa34fc35e1e85101000000000000000000000000000000000000000000000000000000000000000000000000000000000000000000000280b3740c52dd0e63ab6b951bf37c47e4e6ff806be5ea207edf2fbd6b38402de3097ebc24d08e81284c6469825c1a106ac9f5121f36a9a0a58ddb7a35b206071ab9000000000000000000000000000000000000000000000000000000000000001c0000000000000000000000000000000000000000000000000000000000000000000000000000000000000000000000000000000000000000000000000000000000000000000000000000000000000000000000000000000000000000000000000000000000000000000000000000000000000000000000000000000000000041049d9031e97dd78ff8c15aa86939de9b1e791066a0224e331bc962a2099a7b1f0464b8bbafe1535f2301c72c2cb3535b172da30b02686ab0393d348614f157fbdb0000000000000000000000000000000000000000000000000000000000000000000000000000000000000000000000000000000000000000000000000000410420b871f3ced029e14472ec4ebc3c0448164942b123aa6af91a3386c1c403e0ebd3b4a5752a2b6c49e574619e6aa0549eb9ccd036b9bbc507e1f7f9712a2360920000000000000000000000000000000000000000000000000000000000000000000000000000000000000000000000000000000000000000000000000000145fbdb2315678afecb367f032d93f642f64180aa3000000000000000000000000",
      "decodedData": {
        "revokerPubkey": "0x049d9031e97dd78ff8c15aa86939de9b1e791066a0224e331bc962a2099a7b1f0464b8bbafe1535f2301c72c2cb3535b172da30b02686ab0393d348614f157fbdb",
        "revokeePubkey": "0x0420b871f3ced029e14472ec4ebc3c0448164942b123aa6af91a3386c1c403e0ebd3b4a5752a2b6c49e574619e6aa0549eb9ccd036b9bbc507e1f7f9712a236092",
        "revocationStartTime": "0",
        "revocationEndTime": "0",
        "nonce": "0xb1d7d6f889764d8faa34fc35e1e85101",
        "expectedAddressOfDeployedContract": "0x5fbdb2315678afecb367f032d93f642f64180aa3",
        "rRevokerPubkeySig": "0xb3740c52dd0e63ab6b951bf37c47e4e6ff806be5ea207edf2fbd6b38402de309",
        "sRevokerPubkeySig": "0x7ebc24d08e81284c6469825c1a106ac9f5121f36a9a0a58ddb7a35b206071ab9",
        "vRevokerPubkeySig": "28",
        "rRevokeePubkeySig": "0x0000000000000000000000000000000000000000000000000000000000000000",
        "sRevokeePubkeySig": "0x0000000000000000000000000000000000000000000000000000000000000000",
        "vRevokeePubkeySig": "0"
      }
    }
  },
  {
    "signedTx": "0x02f90655827a690184773594008506fc23ac008401c9c380945fbdb2315678afecb367f032d93f642f64180aa380b905e48dce31ca00000000000000000000000000000000000000000000000000000000000000400000000000000000000000000000000000000000000000000000000000000300000000000000000000000000000000000000000000000000000000000000018000000000000000000000000000000000000000000000000000000000000002000000000000000000000000000000000000000000000000000000000000000000000000000000000000000000000000000000000000000000000000000000000083e00a80a06c4b598bae52df104d1855000000000000000000000000000000000000000000000000000000000000000000000000000000000000000000000280428ac8fa4f53f22f2fa39c5e25e2ad5b154b7eb7c47d67098aaa6d49405942b950e86b53cb254119c36c48b679bf268bb62bac2a26a413de1538289598224800000000000000000000000000000000000000000000000000000000000000001c4148e440d9112d23146790494d2f0eff5f356bb9d3af1e707355a477a0b02f694d7724c24239b15c37772c46cc5cbcbbecc2c9bb71d74d3d283ae15c626801ea000000000000000000000000000000000000000000000000000000000000001b000000000000000000000000000000000000000000000000000000000000004104ba5734d8f7091719471e7f7ed6b9df170dc70cc661ca05e688601ad984f068b0d67351e5f06073092499336ab0839ef8a521afd334e53807205fa2f08eec74f4000000000000000000000000000000000000000000000000000000000000000000000000000000000000000000000000000000000000000000000000000041048318535b54105d4a7aae60c08fc45f9687181b4fdfc625bd1a753fa7397fed753547f11ca8696646f2f3acb08e31016afac23e630c5d11f59f61fef57b0d2aa50000000000000000000000000000000000000000000000000000000000000000000000000000000000000000000000000000000000000000000000000000145fbdb2315678afecb367f032d93f642f64180aa300000000000000000000000000000000000000000000000000000000000000000000000000000000000001a00000000000000000000000000000000000000000000000000000000000000220000000000000000000000000000000000000000000000000000000000000000000000000000000000000000000000000000000000000000000000000000000000000000000000000000000000000000000000000000000000000000000000001f756a99c043b4f088f7736b3117fb87f0000000000000000000000000000000000000000000000000000000000000000000000000000000000000000000002a0e5b1c722f57d0e2f9084b61ad99846bcc76598794d64f3addba206d367c960b83d6967a52031cb5e1e696cf41ed18d3b47aa1ee3f74dda51ddacebc8a714328e000000000000000000000000000000000000000000000000000000000000001c494fe49d2dfe6daca03cd95d67f53678705b60c132aea5604e9eed4413ed626072eda13ae56b668fc20c2047252f7ae71e9cc84017f0fb4e254e66b52dc84e08000000000000000000000000000000000000000000000000000000000000001b000000000000000000000000000000000000000000000000000000000000004104ba5734d8f7091719471e7f7ed6b9df170dc70cc661ca05e688601ad984f068b0d67351e5f06073092499336ab0839ef8a521afd334e53807205fa2f08eec74f400000000000000000000000000000000000000000000000000000000000000000000000000000000000000000000000000000000000000000000000000004104bf6ee64a8d2fdc551ec8bb9ef862ef6b4bcb1805cdc520c3aa5866c0575fd3b514c5562c3caae7aec5cd6f144b57135c75b6f6cea059c3d08d1f39a9c227219d0000000000000000000000000000000000000000000000000000000000000000000000000000000000000000000000000000000000000000000000000000145fbdb2315678afecb367f032d93f642f64180aa3000000000000000000000000c080a0e99c480da3a84289299d63d3999f2584379fe5c0c91ab6c9771a92639b093eafa053f34cb8d7a53df51f14dd4d94e62ef388ed994cafda96a6fa3a8650fa9cdd19",
    "decodedTx": {
      "from": "0x70997970c51812dc3a010c7d01b50e0d17dc79c8",
      "to": "0x5fbdb2315678afecb367f032d93f642f64180aa3",
      "value": "0",
      "gasLimit": "30000000",
      "nonce": 1,
      "chainId": "31337",
      "maxFeePerGas": "30000000000",
      "maxPriorityFeePerGas": "2000000000",
      "funcName": "createRevocationEventFollowedByDelegationEvent",
      "encodedData": "0x8dce31ca00000000000000000000000000000000000000000000000000000000000000400000000000000000000000000000000000000000000000000000000000000300000000000000000000000000000000000000000000000000000000000000018000000000000000000000000000000000000000000000000000000000000002000000000000000000000000000000000000000000000000000000000000000000000000000000000000000000000000000000000000000000000000000000000083e00a80a06c4b598bae52df104d1855000000000000000000000000000000000000000000000000000000000000000000000000000000000000000000000280428ac8fa4f53f22f2fa39c5e25e2ad5b154b7eb7c47d67098aaa6d49405942b950e86b53cb254119c36c48b679bf268bb62bac2a26a413de1538289598224800000000000000000000000000000000000000000000000000000000000000001c4148e440d9112d23146790494d2f0eff5f356bb9d3af1e707355a477a0b02f694d7724c24239b15c37772c46cc5cbcbbecc2c9bb71d74d3d283ae15c626801ea000000000000000000000000000000000000000000000000000000000000001b000000000000000000000000000000000000000000000000000000000000004104ba5734d8f7091719471e7f7ed6b9df170dc70cc661ca05e688601ad984f068b0d67351e5f06073092499336ab0839ef8a521afd334e53807205fa2f08eec74f4000000000000000000000000000000000000000000000000000000000000000000000000000000000000000000000000000000000000000000000000000041048318535b54105d4a7aae60c08fc45f9687181b4fdfc625bd1a753fa7397fed753547f11ca8696646f2f3acb08e31016afac23e630c5d11f59f61fef57b0d2aa50000000000000000000000000000000000000000000000000000000000000000000000000000000000000000000000000000000000000000000000000000145fbdb2315678afecb367f032d93f642f64180aa300000000000000000000000000000000000000000000000000000000000000000000000000000000000001a00000000000000000000000000000000000000000000000000000000000000220000000000000000000000000000000000000000000000000000000000000000000000000000000000000000000000000000000000000000000000000000000000000000000000000000000000000000000000000000000000000000000000001f756a99c043b4f088f7736b3117fb87f0000000000000000000000000000000000000000000000000000000000000000000000000000000000000000000002a0e5b1c722f57d0e2f9084b61ad99846bcc76598794d64f3addba206d367c960b83d6967a52031cb5e1e696cf41ed18d3b47aa1ee3f74dda51ddacebc8a714328e000000000000000000000000000000000000000000000000000000000000001c494fe49d2dfe6daca03cd95d67f53678705b60c132aea5604e9eed4413ed626072eda13ae56b668fc20c2047252f7ae71e9cc84017f0fb4e254e66b52dc84e08000000000000000000000000000000000000000000000000000000000000001b000000000000000000000000000000000000000000000000000000000000004104ba5734d8f7091719471e7f7ed6b9df170dc70cc661ca05e688601ad984f068b0d67351e5f06073092499336ab0839ef8a521afd334e53807205fa2f08eec74f400000000000000000000000000000000000000000000000000000000000000000000000000000000000000000000000000000000000000000000000000004104bf6ee64a8d2fdc551ec8bb9ef862ef6b4bcb1805cdc520c3aa5866c0575fd3b514c5562c3caae7aec5cd6f144b57135c75b6f6cea059c3d08d1f39a9c227219d0000000000000000000000000000000000000000000000000000000000000000000000000000000000000000000000000000000000000000000000000000145fbdb2315678afecb367f032d93f642f64180aa3000000000000000000000000",
      "decodedDataTypeA": {
        "delegatorPubkey": "0x04ba5734d8f7091719471e7f7ed6b9df170dc70cc661ca05e688601ad984f068b0d67351e5f06073092499336ab0839ef8a521afd334e53807205fa2f08eec74f4",
        "delegateePubkey": "0x04bf6ee64a8d2fdc551ec8bb9ef862ef6b4bcb1805cdc520c3aa5866c0575fd3b514c5562c3caae7aec5cd6f144b57135c75b6f6cea059c3d08d1f39a9c227219d",
        "delegationStartTime": "0",
        "delegationEndTime": "0",
        "doesRevocationRequireDelegateeSignature": true,
        "nonce": "0xf756a99c043b4f088f7736b3117fb87f",
        "expectedAddressOfDeployedContract": "0x5fbdb2315678afecb367f032d93f642f64180aa3",
        "rDelegatorPubkeySig": "0xe5b1c722f57d0e2f9084b61ad99846bcc76598794d64f3addba206d367c960b8",
        "sDelegatorPubkeySig": "0x3d6967a52031cb5e1e696cf41ed18d3b47aa1ee3f74dda51ddacebc8a714328e",
        "vDelegatorPubkeySig": "28",
        "rDelegateePubkeySig": "0x494fe49d2dfe6daca03cd95d67f53678705b60c132aea5604e9eed4413ed6260",
        "sDelegateePubkeySig": "0x72eda13ae56b668fc20c2047252f7ae71e9cc84017f0fb4e254e66b52dc84e08",
        "vDelegateePubkeySig": "27"
      },
      "decodedDataTypeB": {
        "revokerPubkey": "0x04ba5734d8f7091719471e7f7ed6b9df170dc70cc661ca05e688601ad984f068b0d67351e5f06073092499336ab0839ef8a521afd334e53807205fa2f08eec74f4",
        "revokeePubkey": "0x048318535b54105d4a7aae60c08fc45f9687181b4fdfc625bd1a753fa7397fed753547f11ca8696646f2f3acb08e31016afac23e630c5d11f59f61fef57b0d2aa5",
        "revocationStartTime": "0",
        "revocationEndTime": "0",
        "nonce": "0x83e00a80a06c4b598bae52df104d1855",
        "expectedAddressOfDeployedContract": "0x5fbdb2315678afecb367f032d93f642f64180aa3",
        "rRevokerPubkeySig": "0x428ac8fa4f53f22f2fa39c5e25e2ad5b154b7eb7c47d67098aaa6d49405942b9",
        "sRevokerPubkeySig": "0x50e86b53cb254119c36c48b679bf268bb62bac2a26a413de1538289598224800",
        "vRevokerPubkeySig": "28",
        "rRevokeePubkeySig": "0x4148e440d9112d23146790494d2f0eff5f356bb9d3af1e707355a477a0b02f69",
        "sRevokeePubkeySig": "0x4d7724c24239b15c37772c46cc5cbcbbecc2c9bb71d74d3d283ae15c626801ea",
        "vRevokeePubkeySig": "27"
      }
    }
  },
  {
    "signedTx": "0x02f90375827a690284773594008506fc23ac008401c9c380945fbdb2315678afecb367f032d93f642f64180aa380b9030400041499000000000000000000000000000000000000000000000000000000000000002000000000000000000000000000000000000000000000000000000000000001a0000000000000000000000000000000000000000000000000000000000000022000000000000000000000000000000000000000000000000000000000000000000000000000000000000000000000000000000000000000000000000000000000000000000000000000000000000000000000000000000000000000000000000102551d016078443d825c1d08f2f871b90000000000000000000000000000000000000000000000000000000000000000000000000000000000000000000002a0916bb517d486ce3153bdf43185c9000f34c3d51a803aa1264505b0ced86e5d3d27ab37f10acdecdfa756a5a13f9f09673ec4ef0d1809419f34e248faf3f23395000000000000000000000000000000000000000000000000000000000000001b01fb0968e8fdf339b6ec0c5f6a4c8bb4092765f735cc5cb0d8df5c6c2f49ea195a1af400dd7584700f6a0344e26c5566e99f2a906bcacf7fe5a9e8840ca1aa73000000000000000000000000000000000000000000000000000000000000001b0000000000000000000000000000000000000000000000000000000000000041048318535b54105d4a7aae60c08fc45f9687181b4fdfc625bd1a753fa7397fed753547f11ca8696646f2f3acb08e31016afac23e630c5d11f59f61fef57b0d2aa500000000000000000000000000000000000000000000000000000000000000000000000000000000000000000000000000000000000000000000000000004104ba5734d8f7091719471e7f7ed6b9df170dc70cc661ca05e688601ad984f068b0d67351e5f06073092499336ab0839ef8a521afd334e53807205fa2f08eec74f40000000000000000000000000000000000000000000000000000000000000000000000000000000000000000000000000000000000000000000000000000145fbdb2315678afecb367f032d93f642f64180aa3000000000000000000000000c001a0992e611eb73071f35e83022008e876f036f1ce0f038798a5e36dcb235490012da05b77d24481738174acf5a7cd368561952a032c00d75fd17fad3b1d32e28ad764",
    "decodedTx": {
      "from": "0xf39fd6e51aad88f6f4ce6ab8827279cfffb92266",
      "to": "0x5fbdb2315678afecb367f032d93f642f64180aa3",
      "value": "0",
      "gasLimit": "30000000",
      "nonce": 2,
      "chainId": "31337",
      "maxFeePerGas": "30000000000",
      "maxPriorityFeePerGas": "2000000000",
      "funcName": "createDelegationEvent",
      "encodedData": "0x00041499000000000000000000000000000000000000000000000000000000000000002000000000000000000000000000000000000000000000000000000000000001a0000000000000000000000000000000000000000000000000000000000000022000000000000000000000000000000000000000000000000000000000000000000000000000000000000000000000000000000000000000000000000000000000000000000000000000000000000000000000000000000000000000000000000102551d016078443d825c1d08f2f871b90000000000000000000000000000000000000000000000000000000000000000000000000000000000000000000002a0916bb517d486ce3153bdf43185c9000f34c3d51a803aa1264505b0ced86e5d3d27ab37f10acdecdfa756a5a13f9f09673ec4ef0d1809419f34e248faf3f23395000000000000000000000000000000000000000000000000000000000000001b01fb0968e8fdf339b6ec0c5f6a4c8bb4092765f735cc5cb0d8df5c6c2f49ea195a1af400dd7584700f6a0344e26c5566e99f2a906bcacf7fe5a9e8840ca1aa73000000000000000000000000000000000000000000000000000000000000001b0000000000000000000000000000000000000000000000000000000000000041048318535b54105d4a7aae60c08fc45f9687181b4fdfc625bd1a753fa7397fed753547f11ca8696646f2f3acb08e31016afac23e630c5d11f59f61fef57b0d2aa500000000000000000000000000000000000000000000000000000000000000000000000000000000000000000000000000000000000000000000000000004104ba5734d8f7091719471e7f7ed6b9df170dc70cc661ca05e688601ad984f068b0d67351e5f06073092499336ab0839ef8a521afd334e53807205fa2f08eec74f40000000000000000000000000000000000000000000000000000000000000000000000000000000000000000000000000000000000000000000000000000145fbdb2315678afecb367f032d93f642f64180aa3000000000000000000000000",
      "decodedData": {
        "delegatorPubkey": "0x048318535b54105d4a7aae60c08fc45f9687181b4fdfc625bd1a753fa7397fed753547f11ca8696646f2f3acb08e31016afac23e630c5d11f59f61fef57b0d2aa5",
        "delegateePubkey": "0x04ba5734d8f7091719471e7f7ed6b9df170dc70cc661ca05e688601ad984f068b0d67351e5f06073092499336ab0839ef8a521afd334e53807205fa2f08eec74f4",
        "delegationStartTime": "0",
        "delegationEndTime": "0",
        "doesRevocationRequireDelegateeSignature": true,
        "nonce": "0x02551d016078443d825c1d08f2f871b9",
        "expectedAddressOfDeployedContract": "0x5fbdb2315678afecb367f032d93f642f64180aa3",
        "rDelegatorPubkeySig": "0x916bb517d486ce3153bdf43185c9000f34c3d51a803aa1264505b0ced86e5d3d",
        "sDelegatorPubkeySig": "0x27ab37f10acdecdfa756a5a13f9f09673ec4ef0d1809419f34e248faf3f23395",
        "vDelegatorPubkeySig": "27",
        "rDelegateePubkeySig": "0x01fb0968e8fdf339b6ec0c5f6a4c8bb4092765f735cc5cb0d8df5c6c2f49ea19",
        "sDelegateePubkeySig": "0x5a1af400dd7584700f6a0344e26c5566e99f2a906bcacf7fe5a9e8840ca1aa73",
        "vDelegateePubkeySig": "27"
      }
    }
  },
  {
    "signedTx": "0x02f90375827a690384773594008506fc23ac008401c9c380945fbdb2315678afecb367f032d93f642f64180aa380b9030400041499000000000000000000000000000000000000000000000000000000000000002000000000000000000000000000000000000000000000000000000000000001a0000000000000000000000000000000000000000000000000000000000000022000000000000000000000000000000000000000000000000000000000000000000000000000000000000000000000000000000000000000000000000000000000000000000000000000000000000000000000000000000000000000000000000140d54ab1d56b49cab4c907cf93cfeb3f0000000000000000000000000000000000000000000000000000000000000000000000000000000000000000000002a08650fb6f149cb76c513a2acf3782d57cc80f96289bd3d8070b885d8988acf687497ddd76d8fe5639d8f957078b05fbf0d1bd3d0889ad742dcf6026cee1b9e60a000000000000000000000000000000000000000000000000000000000000001ca05fbc1d48cfae4787d540138aecddb173b8a8cc3d6c416291ff16f465549c914df842cbc2df8d98f0e28787475812531c7c3a855e99848e2c3807101e6443da000000000000000000000000000000000000000000000000000000000000001c0000000000000000000000000000000000000000000000000000000000000041048318535b54105d4a7aae60c08fc45f9687181b4fdfc625bd1a753fa7397fed753547f11ca8696646f2f3acb08e31016afac23e630c5d11f59f61fef57b0d2aa50000000000000000000000000000000000000000000000000000000000000000000000000000000000000000000000000000000000000000000000000000410420b871f3ced029e14472ec4ebc3c0448164942b123aa6af91a3386c1c403e0ebd3b4a5752a2b6c49e574619e6aa0549eb9ccd036b9bbc507e1f7f9712a2360920000000000000000000000000000000000000000000000000000000000000000000000000000000000000000000000000000000000000000000000000000145fbdb2315678afecb367f032d93f642f64180aa3000000000000000000000000c001a04388668a10af65e296ebb446631a045b799aced4e7068288d67d4914eabe1394a02a9608c06c30b5812c782f6ed26e7f695302550c43b4620ecaf59f3f77f23029",
    "decodedTx": {
      "from": "0xf39fd6e51aad88f6f4ce6ab8827279cfffb92266",
      "to": "0x5fbdb2315678afecb367f032d93f642f64180aa3",
      "value": "0",
      "gasLimit": "30000000",
      "nonce": 3,
      "chainId": "31337",
      "maxFeePerGas": "30000000000",
      "maxPriorityFeePerGas": "2000000000",
      "funcName": "createDelegationEvent",
      "encodedData": "0x00041499000000000000000000000000000000000000000000000000000000000000002000000000000000000000000000000000000000000000000000000000000001a0000000000000000000000000000000000000000000000000000000000000022000000000000000000000000000000000000000000000000000000000000000000000000000000000000000000000000000000000000000000000000000000000000000000000000000000000000000000000000000000000000000000000000140d54ab1d56b49cab4c907cf93cfeb3f0000000000000000000000000000000000000000000000000000000000000000000000000000000000000000000002a08650fb6f149cb76c513a2acf3782d57cc80f96289bd3d8070b885d8988acf687497ddd76d8fe5639d8f957078b05fbf0d1bd3d0889ad742dcf6026cee1b9e60a000000000000000000000000000000000000000000000000000000000000001ca05fbc1d48cfae4787d540138aecddb173b8a8cc3d6c416291ff16f465549c914df842cbc2df8d98f0e28787475812531c7c3a855e99848e2c3807101e6443da000000000000000000000000000000000000000000000000000000000000001c0000000000000000000000000000000000000000000000000000000000000041048318535b54105d4a7aae60c08fc45f9687181b4fdfc625bd1a753fa7397fed753547f11ca8696646f2f3acb08e31016afac23e630c5d11f59f61fef57b0d2aa50000000000000000000000000000000000000000000000000000000000000000000000000000000000000000000000000000000000000000000000000000410420b871f3ced029e14472ec4ebc3c0448164942b123aa6af91a3386c1c403e0ebd3b4a5752a2b6c49e574619e6aa0549eb9ccd036b9bbc507e1f7f9712a2360920000000000000000000000000000000000000000000000000000000000000000000000000000000000000000000000000000000000000000000000000000145fbdb2315678afecb367f032d93f642f64180aa3000000000000000000000000",
      "decodedData": {
        "delegatorPubkey": "0x048318535b54105d4a7aae60c08fc45f9687181b4fdfc625bd1a753fa7397fed753547f11ca8696646f2f3acb08e31016afac23e630c5d11f59f61fef57b0d2aa5",
        "delegateePubkey": "0x0420b871f3ced029e14472ec4ebc3c0448164942b123aa6af91a3386c1c403e0ebd3b4a5752a2b6c49e574619e6aa0549eb9ccd036b9bbc507e1f7f9712a236092",
        "delegationStartTime": "0",
        "delegationEndTime": "0",
        "doesRevocationRequireDelegateeSignature": true,
        "nonce": "0x40d54ab1d56b49cab4c907cf93cfeb3f",
        "expectedAddressOfDeployedContract": "0x5fbdb2315678afecb367f032d93f642f64180aa3",
        "rDelegatorPubkeySig": "0x8650fb6f149cb76c513a2acf3782d57cc80f96289bd3d8070b885d8988acf687",
        "sDelegatorPubkeySig": "0x497ddd76d8fe5639d8f957078b05fbf0d1bd3d0889ad742dcf6026cee1b9e60a",
        "vDelegatorPubkeySig": "28",
        "rDelegateePubkeySig": "0xa05fbc1d48cfae4787d540138aecddb173b8a8cc3d6c416291ff16f465549c91",
        "sDelegateePubkeySig": "0x4df842cbc2df8d98f0e28787475812531c7c3a855e99848e2c3807101e6443da",
        "vDelegateePubkeySig": "28"
      }
    }
  },
  {
    "signedTx": "0x02f90375827a690484773594008506fc23ac008401c9c380945fbdb2315678afecb367f032d93f642f64180aa380b9030400041499000000000000000000000000000000000000000000000000000000000000002000000000000000000000000000000000000000000000000000000000000001a000000000000000000000000000000000000000000000000000000000000002200000000000000000000000000000000000000000000000000000000000000000000000000000000000000000000000000000000000000000000000000000000000000000000000000000000000000000000000000000000000000000000000012ce14b89d72f49b6b9baa5b19d84cb1d0000000000000000000000000000000000000000000000000000000000000000000000000000000000000000000002a02b961e5c093702e8437174fa27d9d2bf4c4b67efbdbd17001de6a3652fc155b51baaf2b616a7c220795a3b9b5aa7cc0a4b200ff771c18e9384894b9539105b6a000000000000000000000000000000000000000000000000000000000000001bc271bfc20f3a6fc3e651dbecf3b59b4210d59aee4a35b529dee72d24cfcc14876fe5be581045ca2d8cdcd6e02e0c733c0d14876149bf3df07a03ec8d2b52ff6a000000000000000000000000000000000000000000000000000000000000001b00000000000000000000000000000000000000000000000000000000000000410420b871f3ced029e14472ec4ebc3c0448164942b123aa6af91a3386c1c403e0ebd3b4a5752a2b6c49e574619e6aa0549eb9ccd036b9bbc507e1f7f9712a23609200000000000000000000000000000000000000000000000000000000000000000000000000000000000000000000000000000000000000000000000000004104bf6ee64a8d2fdc551ec8bb9ef862ef6b4bcb1805cdc520c3aa5866c0575fd3b514c5562c3caae7aec5cd6f144b57135c75b6f6cea059c3d08d1f39a9c227219d0000000000000000000000000000000000000000000000000000000000000000000000000000000000000000000000000000000000000000000000000000145fbdb2315678afecb367f032d93f642f64180aa3000000000000000000000000c080a09a924185e3a4a5f5dde3e2413b8294b33279dbff07d4f1fabb2fc571ad7fa9d9a03e63404254669d4c3e554eb3c5bc0472be4674d671347fb15ad675364bd61a50",
    "decodedTx": {
      "from": "0x90f79bf6eb2c4f870365e785982e1f101e93b906",
      "to": "0x5fbdb2315678afecb367f032d93f642f64180aa3",
      "value": "0",
      "gasLimit": "30000000",
      "nonce": 4,
      "chainId": "31337",
      "maxFeePerGas": "30000000000",
      "maxPriorityFeePerGas": "2000000000",
      "funcName": "createDelegationEvent",
      "encodedData": "0x00041499000000000000000000000000000000000000000000000000000000000000002000000000000000000000000000000000000000000000000000000000000001a000000000000000000000000000000000000000000000000000000000000002200000000000000000000000000000000000000000000000000000000000000000000000000000000000000000000000000000000000000000000000000000000000000000000000000000000000000000000000000000000000000000000000012ce14b89d72f49b6b9baa5b19d84cb1d0000000000000000000000000000000000000000000000000000000000000000000000000000000000000000000002a02b961e5c093702e8437174fa27d9d2bf4c4b67efbdbd17001de6a3652fc155b51baaf2b616a7c220795a3b9b5aa7cc0a4b200ff771c18e9384894b9539105b6a000000000000000000000000000000000000000000000000000000000000001bc271bfc20f3a6fc3e651dbecf3b59b4210d59aee4a35b529dee72d24cfcc14876fe5be581045ca2d8cdcd6e02e0c733c0d14876149bf3df07a03ec8d2b52ff6a000000000000000000000000000000000000000000000000000000000000001b00000000000000000000000000000000000000000000000000000000000000410420b871f3ced029e14472ec4ebc3c0448164942b123aa6af91a3386c1c403e0ebd3b4a5752a2b6c49e574619e6aa0549eb9ccd036b9bbc507e1f7f9712a23609200000000000000000000000000000000000000000000000000000000000000000000000000000000000000000000000000000000000000000000000000004104bf6ee64a8d2fdc551ec8bb9ef862ef6b4bcb1805cdc520c3aa5866c0575fd3b514c5562c3caae7aec5cd6f144b57135c75b6f6cea059c3d08d1f39a9c227219d0000000000000000000000000000000000000000000000000000000000000000000000000000000000000000000000000000000000000000000000000000145fbdb2315678afecb367f032d93f642f64180aa3000000000000000000000000",
      "decodedData": {
        "delegatorPubkey": "0x0420b871f3ced029e14472ec4ebc3c0448164942b123aa6af91a3386c1c403e0ebd3b4a5752a2b6c49e574619e6aa0549eb9ccd036b9bbc507e1f7f9712a236092",
        "delegateePubkey": "0x04bf6ee64a8d2fdc551ec8bb9ef862ef6b4bcb1805cdc520c3aa5866c0575fd3b514c5562c3caae7aec5cd6f144b57135c75b6f6cea059c3d08d1f39a9c227219d",
        "delegationStartTime": "0",
        "delegationEndTime": "0",
        "doesRevocationRequireDelegateeSignature": true,
        "nonce": "0x2ce14b89d72f49b6b9baa5b19d84cb1d",
        "expectedAddressOfDeployedContract": "0x5fbdb2315678afecb367f032d93f642f64180aa3",
        "rDelegatorPubkeySig": "0x2b961e5c093702e8437174fa27d9d2bf4c4b67efbdbd17001de6a3652fc155b5",
        "sDelegatorPubkeySig": "0x1baaf2b616a7c220795a3b9b5aa7cc0a4b200ff771c18e9384894b9539105b6a",
        "vDelegatorPubkeySig": "27",
        "rDelegateePubkeySig": "0xc271bfc20f3a6fc3e651dbecf3b59b4210d59aee4a35b529dee72d24cfcc1487",
        "sDelegateePubkeySig": "0x6fe5be581045ca2d8cdcd6e02e0c733c0d14876149bf3df07a03ec8d2b52ff6a",
        "vDelegateePubkeySig": "27"
      }
    }
  },
  {
    "signedTx": "0x02f90375827a690484773594008506fc23ac008401c9c380945fbdb2315678afecb367f032d93f642f64180aa380b9030400041499000000000000000000000000000000000000000000000000000000000000002000000000000000000000000000000000000000000000000000000000000001a000000000000000000000000000000000000000000000000000000000000002200000000000000000000000000000000000000000000000000000000000000000000000000000000000000000000000000000000000000000000000000000000000000000000000000000000000000000000000000000000000000000000000016b8abeedb7ff4c4cb0fb23df15c00d500000000000000000000000000000000000000000000000000000000000000000000000000000000000000000000002a04092a629aa6773a795e62884daac643468d07ab961ac3b3c06f070578d8b40ec31df4ca4daad48cffca09a7dcd17335300fb55b21203f16bcfc390b16ec530a2000000000000000000000000000000000000000000000000000000000000001b4b327e6779ee2ec75880af6f4863e45939cd196a60bbe53552a068f0f63ae8fa068ee51da26b012b4172c22d5d9fb25990d97fa564fbc055630fa1be38494a53000000000000000000000000000000000000000000000000000000000000001b0000000000000000000000000000000000000000000000000000000000000041049d9031e97dd78ff8c15aa86939de9b1e791066a0224e331bc962a2099a7b1f0464b8bbafe1535f2301c72c2cb3535b172da30b02686ab0393d348614f157fbdb0000000000000000000000000000000000000000000000000000000000000000000000000000000000000000000000000000000000000000000000000000410420b871f3ced029e14472ec4ebc3c0448164942b123aa6af91a3386c1c403e0ebd3b4a5752a2b6c49e574619e6aa0549eb9ccd036b9bbc507e1f7f9712a2360920000000000000000000000000000000000000000000000000000000000000000000000000000000000000000000000000000000000000000000000000000145fbdb2315678afecb367f032d93f642f64180aa3000000000000000000000000c001a0e43712a80c85013db8e16667ffd9610891b1d0d3c5fca7547d5c47f1b3c6c3a7a07a4112d00386e4fe2c59bf9e940a83ef80e8b5ebe8dbc35673a41140941e00dc",
    "decodedTx": {
      "from": "0x3c44cdddb6a900fa2b585dd299e03d12fa4293bc",
      "to": "0x5fbdb2315678afecb367f032d93f642f64180aa3",
      "value": "0",
      "gasLimit": "30000000",
      "nonce": 4,
      "chainId": "31337",
      "maxFeePerGas": "30000000000",
      "maxPriorityFeePerGas": "2000000000",
      "funcName": "createDelegationEvent",
      "encodedData": "0x00041499000000000000000000000000000000000000000000000000000000000000002000000000000000000000000000000000000000000000000000000000000001a000000000000000000000000000000000000000000000000000000000000002200000000000000000000000000000000000000000000000000000000000000000000000000000000000000000000000000000000000000000000000000000000000000000000000000000000000000000000000000000000000000000000000016b8abeedb7ff4c4cb0fb23df15c00d500000000000000000000000000000000000000000000000000000000000000000000000000000000000000000000002a04092a629aa6773a795e62884daac643468d07ab961ac3b3c06f070578d8b40ec31df4ca4daad48cffca09a7dcd17335300fb55b21203f16bcfc390b16ec530a2000000000000000000000000000000000000000000000000000000000000001b4b327e6779ee2ec75880af6f4863e45939cd196a60bbe53552a068f0f63ae8fa068ee51da26b012b4172c22d5d9fb25990d97fa564fbc055630fa1be38494a53000000000000000000000000000000000000000000000000000000000000001b0000000000000000000000000000000000000000000000000000000000000041049d9031e97dd78ff8c15aa86939de9b1e791066a0224e331bc962a2099a7b1f0464b8bbafe1535f2301c72c2cb3535b172da30b02686ab0393d348614f157fbdb0000000000000000000000000000000000000000000000000000000000000000000000000000000000000000000000000000000000000000000000000000410420b871f3ced029e14472ec4ebc3c0448164942b123aa6af91a3386c1c403e0ebd3b4a5752a2b6c49e574619e6aa0549eb9ccd036b9bbc507e1f7f9712a2360920000000000000000000000000000000000000000000000000000000000000000000000000000000000000000000000000000000000000000000000000000145fbdb2315678afecb367f032d93f642f64180aa3000000000000000000000000",
      "decodedData": {
        "delegatorPubkey": "0x049d9031e97dd78ff8c15aa86939de9b1e791066a0224e331bc962a2099a7b1f0464b8bbafe1535f2301c72c2cb3535b172da30b02686ab0393d348614f157fbdb",
        "delegateePubkey": "0x0420b871f3ced029e14472ec4ebc3c0448164942b123aa6af91a3386c1c403e0ebd3b4a5752a2b6c49e574619e6aa0549eb9ccd036b9bbc507e1f7f9712a236092",
        "delegationStartTime": "0",
        "delegationEndTime": "0",
        "doesRevocationRequireDelegateeSignature": true,
        "nonce": "0x6b8abeedb7ff4c4cb0fb23df15c00d50",
        "expectedAddressOfDeployedContract": "0x5fbdb2315678afecb367f032d93f642f64180aa3",
        "rDelegatorPubkeySig": "0x4092a629aa6773a795e62884daac643468d07ab961ac3b3c06f070578d8b40ec",
        "sDelegatorPubkeySig": "0x31df4ca4daad48cffca09a7dcd17335300fb55b21203f16bcfc390b16ec530a2",
        "vDelegatorPubkeySig": "27",
        "rDelegateePubkeySig": "0x4b327e6779ee2ec75880af6f4863e45939cd196a60bbe53552a068f0f63ae8fa",
        "sDelegateePubkeySig": "0x068ee51da26b012b4172c22d5d9fb25990d97fa564fbc055630fa1be38494a53",
        "vDelegateePubkeySig": "27"
      }
    }
  },
  {
    "signedTx": "0x02f90375827a690284773594008506fc23ac008401c9c380945fbdb2315678afecb367f032d93f642f64180aa380b9030400041499000000000000000000000000000000000000000000000000000000000000002000000000000000000000000000000000000000000000000000000000000001a0000000000000000000000000000000000000000000000000000000000000022000000000000000000000000000000000000000000000000000000000000000000000000000000000000000000000000000000000000000000000000000000000000000000000000000000000000000000000000000000000000000000000000175c60fb94fa74423b50f1100bf9bbeb90000000000000000000000000000000000000000000000000000000000000000000000000000000000000000000002a04b8d1fcb00d43ed804f7cd7644bed1d0f28f2f43ff733c7ffee436b4ef2d565269c04bf1cce4aa01de3d1ebe4b06f79d84bd0e58b00d7e303c4fcc5c991d7cd2000000000000000000000000000000000000000000000000000000000000001bbdd994f473f46ffc38c4b82f3125f529d57d0f5667b19604de9c27d3bde0c64a2c8a712b915097db655491c53e06fd8ceff050689403e06e3607950197a2228b000000000000000000000000000000000000000000000000000000000000001b000000000000000000000000000000000000000000000000000000000000004104ba5734d8f7091719471e7f7ed6b9df170dc70cc661ca05e688601ad984f068b0d67351e5f06073092499336ab0839ef8a521afd334e53807205fa2f08eec74f4000000000000000000000000000000000000000000000000000000000000000000000000000000000000000000000000000000000000000000000000000041048318535b54105d4a7aae60c08fc45f9687181b4fdfc625bd1a753fa7397fed753547f11ca8696646f2f3acb08e31016afac23e630c5d11f59f61fef57b0d2aa50000000000000000000000000000000000000000000000000000000000000000000000000000000000000000000000000000000000000000000000000000145fbdb2315678afecb367f032d93f642f64180aa3000000000000000000000000c001a09a8ba90a65039f5fed8a23a0e38cd8287c62157b2216272d4576c59ab7fa5f0ca007e40385c461afee6e593877fb395d593efd870167b83b9294df97acf81f8198",
    "decodedTx": {
      "from": "0x70997970c51812dc3a010c7d01b50e0d17dc79c8",
      "to": "0x5fbdb2315678afecb367f032d93f642f64180aa3",
      "value": "0",
      "gasLimit": "30000000",
      "nonce": 2,
      "chainId": "31337",
      "maxFeePerGas": "30000000000",
      "maxPriorityFeePerGas": "2000000000",
      "funcName": "createDelegationEvent",
      "encodedData": "0x00041499000000000000000000000000000000000000000000000000000000000000002000000000000000000000000000000000000000000000000000000000000001a0000000000000000000000000000000000000000000000000000000000000022000000000000000000000000000000000000000000000000000000000000000000000000000000000000000000000000000000000000000000000000000000000000000000000000000000000000000000000000000000000000000000000000175c60fb94fa74423b50f1100bf9bbeb90000000000000000000000000000000000000000000000000000000000000000000000000000000000000000000002a04b8d1fcb00d43ed804f7cd7644bed1d0f28f2f43ff733c7ffee436b4ef2d565269c04bf1cce4aa01de3d1ebe4b06f79d84bd0e58b00d7e303c4fcc5c991d7cd2000000000000000000000000000000000000000000000000000000000000001bbdd994f473f46ffc38c4b82f3125f529d57d0f5667b19604de9c27d3bde0c64a2c8a712b915097db655491c53e06fd8ceff050689403e06e3607950197a2228b000000000000000000000000000000000000000000000000000000000000001b000000000000000000000000000000000000000000000000000000000000004104ba5734d8f7091719471e7f7ed6b9df170dc70cc661ca05e688601ad984f068b0d67351e5f06073092499336ab0839ef8a521afd334e53807205fa2f08eec74f4000000000000000000000000000000000000000000000000000000000000000000000000000000000000000000000000000000000000000000000000000041048318535b54105d4a7aae60c08fc45f9687181b4fdfc625bd1a753fa7397fed753547f11ca8696646f2f3acb08e31016afac23e630c5d11f59f61fef57b0d2aa50000000000000000000000000000000000000000000000000000000000000000000000000000000000000000000000000000000000000000000000000000145fbdb2315678afecb367f032d93f642f64180aa3000000000000000000000000",
      "decodedData": {
        "delegatorPubkey": "0x04ba5734d8f7091719471e7f7ed6b9df170dc70cc661ca05e688601ad984f068b0d67351e5f06073092499336ab0839ef8a521afd334e53807205fa2f08eec74f4",
        "delegateePubkey": "0x048318535b54105d4a7aae60c08fc45f9687181b4fdfc625bd1a753fa7397fed753547f11ca8696646f2f3acb08e31016afac23e630c5d11f59f61fef57b0d2aa5",
        "delegationStartTime": "0",
        "delegationEndTime": "0",
        "doesRevocationRequireDelegateeSignature": true,
        "nonce": "0x75c60fb94fa74423b50f1100bf9bbeb9",
        "expectedAddressOfDeployedContract": "0x5fbdb2315678afecb367f032d93f642f64180aa3",
        "rDelegatorPubkeySig": "0x4b8d1fcb00d43ed804f7cd7644bed1d0f28f2f43ff733c7ffee436b4ef2d5652",
        "sDelegatorPubkeySig": "0x69c04bf1cce4aa01de3d1ebe4b06f79d84bd0e58b00d7e303c4fcc5c991d7cd2",
        "vDelegatorPubkeySig": "27",
        "rDelegateePubkeySig": "0xbdd994f473f46ffc38c4b82f3125f529d57d0f5667b19604de9c27d3bde0c64a",
        "sDelegateePubkeySig": "0x2c8a712b915097db655491c53e06fd8ceff050689403e06e3607950197a2228b",
        "vDelegateePubkeySig": "27"
      }
    }
  },
  {
    "signedTx": "0x02f90215827a690384773594008506fc23ac008401c9c380945fbdb2315678afecb367f032d93f642f64180aa380b901a49bd623e8000000000000000000000000000000000000000000000000000000000000002000000000000000000000000000000000000000000000000000000000000000c08d74807de49745df9bdb505e3b20710e000000000000000000000000000000000000000000000000000000000000000000000000000000000000000000000140b927d1472eedf1707484cf8dacd4bd820cfec1cbd51bbce9774873d62795bd0775019d17d09a5c9971b44252d4a27de7afcd15d419301d60b989a1b48ca3270c000000000000000000000000000000000000000000000000000000000000001c000000000000000000000000000000000000000000000000000000000000004104ba5734d8f7091719471e7f7ed6b9df170dc70cc661ca05e688601ad984f068b0d67351e5f06073092499336ab0839ef8a521afd334e53807205fa2f08eec74f40000000000000000000000000000000000000000000000000000000000000000000000000000000000000000000000000000000000000000000000000000145fbdb2315678afecb367f032d93f642f64180aa3000000000000000000000000c001a0595331372cfec6120bac1ca241f7e67945760673cba313cffef3d6da77bc19e5a0409674b599f163c6fe34e42b2c30c7a981135fb1c902e5e9ecbec1a3695040c3",
    "decodedTx": {
      "from": "0x70997970c51812dc3a010c7d01b50e0d17dc79c8",
      "to": "0x5fbdb2315678afecb367f032d93f642f64180aa3",
      "value": "0",
      "gasLimit": "30000000",
      "nonce": 3,
      "chainId": "31337",
      "maxFeePerGas": "30000000000",
      "maxPriorityFeePerGas": "2000000000",
      "funcName": "createPermanentInvalidationEvent",
      "encodedData": "0x9bd623e8000000000000000000000000000000000000000000000000000000000000002000000000000000000000000000000000000000000000000000000000000000c08d74807de49745df9bdb505e3b20710e000000000000000000000000000000000000000000000000000000000000000000000000000000000000000000000140b927d1472eedf1707484cf8dacd4bd820cfec1cbd51bbce9774873d62795bd0775019d17d09a5c9971b44252d4a27de7afcd15d419301d60b989a1b48ca3270c000000000000000000000000000000000000000000000000000000000000001c000000000000000000000000000000000000000000000000000000000000004104ba5734d8f7091719471e7f7ed6b9df170dc70cc661ca05e688601ad984f068b0d67351e5f06073092499336ab0839ef8a521afd334e53807205fa2f08eec74f40000000000000000000000000000000000000000000000000000000000000000000000000000000000000000000000000000000000000000000000000000145fbdb2315678afecb367f032d93f642f64180aa3000000000000000000000000",
      "decodedData": {
        "invalidatedPubkey": "0x04ba5734d8f7091719471e7f7ed6b9df170dc70cc661ca05e688601ad984f068b0d67351e5f06073092499336ab0839ef8a521afd334e53807205fa2f08eec74f4",
        "nonce": "0x8d74807de49745df9bdb505e3b20710e",
        "expectedAddressOfDeployedContract": "0x5fbdb2315678afecb367f032d93f642f64180aa3",
        "rInvalidatedPubkeySig": "0xb927d1472eedf1707484cf8dacd4bd820cfec1cbd51bbce9774873d62795bd07",
        "sInvalidatedPubkeySig": "0x75019d17d09a5c9971b44252d4a27de7afcd15d419301d60b989a1b48ca3270c",
        "vInvalidatedPubkeySig": "28"
      }
    }
  },
  {
    "signedTx": "0x02f90375827a690484773594008506fc23ac008401c9c380945fbdb2315678afecb367f032d93f642f64180aa380b9030400041499000000000000000000000000000000000000000000000000000000000000002000000000000000000000000000000000000000000000000000000000000001a00000000000000000000000000000000000000000000000000000000000000220000000000000000000000000000000000000000000000000000000000000000000000000000000000000000000000000000000000000000000000000000000000000000000000000000000000000000000000000000000000000000000000001df8be8f746514a43b2a844e673256e4c0000000000000000000000000000000000000000000000000000000000000000000000000000000000000000000002a06852d958c7e8b91f89d1dfe53f68c2871d977ae1901557b00728cbc0658430406bc70fd803a2cec8c4656a63884b48313ab07fef49f970a40ea43b1c4e6328bb000000000000000000000000000000000000000000000000000000000000001b13d4d00012b12656a64bb18ff100cda4dbc50ea5c31424d2d8ee97b13eef3c36486304661c6c47b277b2f5ba08e2c189f09aa0a2a13bdbaed40359db9eab922c000000000000000000000000000000000000000000000000000000000000001b000000000000000000000000000000000000000000000000000000000000004104ba5734d8f7091719471e7f7ed6b9df170dc70cc661ca05e688601ad984f068b0d67351e5f06073092499336ab0839ef8a521afd334e53807205fa2f08eec74f4000000000000000000000000000000000000000000000000000000000000000000000000000000000000000000000000000000000000000000000000000041048318535b54105d4a7aae60c08fc45f9687181b4fdfc625bd1a753fa7397fed753547f11ca8696646f2f3acb08e31016afac23e630c5d11f59f61fef57b0d2aa50000000000000000000000000000000000000000000000000000000000000000000000000000000000000000000000000000000000000000000000000000145fbdb2315678afecb367f032d93f642f64180aa3000000000000000000000000c001a0e74c27ef218d0c7613ba67c227e9cea8e4ec1310aeb760ea645a774a3d5a02c7a06594faf4c429a45d5e56390a2ae6578da5757d362d87fc540ad69010f719cd37",
    "decodedTx": {
      "from": "0x70997970c51812dc3a010c7d01b50e0d17dc79c8",
      "to": "0x5fbdb2315678afecb367f032d93f642f64180aa3",
      "value": "0",
      "gasLimit": "30000000",
      "nonce": 4,
      "chainId": "31337",
      "maxFeePerGas": "30000000000",
      "maxPriorityFeePerGas": "2000000000",
      "funcName": "createDelegationEvent",
      "encodedData": "0x00041499000000000000000000000000000000000000000000000000000000000000002000000000000000000000000000000000000000000000000000000000000001a00000000000000000000000000000000000000000000000000000000000000220000000000000000000000000000000000000000000000000000000000000000000000000000000000000000000000000000000000000000000000000000000000000000000000000000000000000000000000000000000000000000000000001df8be8f746514a43b2a844e673256e4c0000000000000000000000000000000000000000000000000000000000000000000000000000000000000000000002a06852d958c7e8b91f89d1dfe53f68c2871d977ae1901557b00728cbc0658430406bc70fd803a2cec8c4656a63884b48313ab07fef49f970a40ea43b1c4e6328bb000000000000000000000000000000000000000000000000000000000000001b13d4d00012b12656a64bb18ff100cda4dbc50ea5c31424d2d8ee97b13eef3c36486304661c6c47b277b2f5ba08e2c189f09aa0a2a13bdbaed40359db9eab922c000000000000000000000000000000000000000000000000000000000000001b000000000000000000000000000000000000000000000000000000000000004104ba5734d8f7091719471e7f7ed6b9df170dc70cc661ca05e688601ad984f068b0d67351e5f06073092499336ab0839ef8a521afd334e53807205fa2f08eec74f4000000000000000000000000000000000000000000000000000000000000000000000000000000000000000000000000000000000000000000000000000041048318535b54105d4a7aae60c08fc45f9687181b4fdfc625bd1a753fa7397fed753547f11ca8696646f2f3acb08e31016afac23e630c5d11f59f61fef57b0d2aa50000000000000000000000000000000000000000000000000000000000000000000000000000000000000000000000000000000000000000000000000000145fbdb2315678afecb367f032d93f642f64180aa3000000000000000000000000",
      "decodedData": {
        "delegatorPubkey": "0x04ba5734d8f7091719471e7f7ed6b9df170dc70cc661ca05e688601ad984f068b0d67351e5f06073092499336ab0839ef8a521afd334e53807205fa2f08eec74f4",
        "delegateePubkey": "0x048318535b54105d4a7aae60c08fc45f9687181b4fdfc625bd1a753fa7397fed753547f11ca8696646f2f3acb08e31016afac23e630c5d11f59f61fef57b0d2aa5",
        "delegationStartTime": "0",
        "delegationEndTime": "0",
        "doesRevocationRequireDelegateeSignature": true,
        "nonce": "0xdf8be8f746514a43b2a844e673256e4c",
        "expectedAddressOfDeployedContract": "0x5fbdb2315678afecb367f032d93f642f64180aa3",
        "rDelegatorPubkeySig": "0x6852d958c7e8b91f89d1dfe53f68c2871d977ae1901557b00728cbc065843040",
        "sDelegatorPubkeySig": "0x6bc70fd803a2cec8c4656a63884b48313ab07fef49f970a40ea43b1c4e6328bb",
        "vDelegatorPubkeySig": "27",
        "rDelegateePubkeySig": "0x13d4d00012b12656a64bb18ff100cda4dbc50ea5c31424d2d8ee97b13eef3c36",
        "sDelegateePubkeySig": "0x486304661c6c47b277b2f5ba08e2c189f09aa0a2a13bdbaed40359db9eab922c",
        "vDelegateePubkeySig": "27"
      }
    }
  },
  {
    "signedTx": "0x02f90375827a690584773594008506fc23ac008401c9c380945fbdb2315678afecb367f032d93f642f64180aa380b9030400041499000000000000000000000000000000000000000000000000000000000000002000000000000000000000000000000000000000000000000000000000000001a00000000000000000000000000000000000000000000000000000000000000220000000000000000000000000000000000000000000000000000000000000000000000000000000000000000000000000000000000000000000000000000000000000000000000000000000000000000000000000000000000000000000000001f633d8e38e8547488f1d177c7c8349f80000000000000000000000000000000000000000000000000000000000000000000000000000000000000000000002a0c517d90b8c19373d08475e02799084d0897993fd3461b648259db9525263e2650adaaef48101be1adf4d50acbd8a9e82684619a1f3f989d50e1ebab7fc423fcf000000000000000000000000000000000000000000000000000000000000001c3d3645779b45be96bf5cd69c18a872dcf566e7207f5e956fedc3e701aea4f50408164eb5290a33797640bfacd0ca22c152c9b4b6113f24deabc0f84dd39facdc000000000000000000000000000000000000000000000000000000000000001b0000000000000000000000000000000000000000000000000000000000000041049d9031e97dd78ff8c15aa86939de9b1e791066a0224e331bc962a2099a7b1f0464b8bbafe1535f2301c72c2cb3535b172da30b02686ab0393d348614f157fbdb00000000000000000000000000000000000000000000000000000000000000000000000000000000000000000000000000000000000000000000000000004104ba5734d8f7091719471e7f7ed6b9df170dc70cc661ca05e688601ad984f068b0d67351e5f06073092499336ab0839ef8a521afd334e53807205fa2f08eec74f40000000000000000000000000000000000000000000000000000000000000000000000000000000000000000000000000000000000000000000000000000145fbdb2315678afecb367f032d93f642f64180aa3000000000000000000000000c001a0ffb2bea2806c79c385fc52a874cf970513a23a72635404c02539a07e3db99a51a076ed296199a604711c8f69df92082ce968735f8fba242ffbbadb5143220d651a",
    "decodedTx": {
      "from": "0x3c44cdddb6a900fa2b585dd299e03d12fa4293bc",
      "to": "0x5fbdb2315678afecb367f032d93f642f64180aa3",
      "value": "0",
      "gasLimit": "30000000",
      "nonce": 5,
      "chainId": "31337",
      "maxFeePerGas": "30000000000",
      "maxPriorityFeePerGas": "2000000000",
      "funcName": "createDelegationEvent",
      "encodedData": "0x00041499000000000000000000000000000000000000000000000000000000000000002000000000000000000000000000000000000000000000000000000000000001a00000000000000000000000000000000000000000000000000000000000000220000000000000000000000000000000000000000000000000000000000000000000000000000000000000000000000000000000000000000000000000000000000000000000000000000000000000000000000000000000000000000000000001f633d8e38e8547488f1d177c7c8349f80000000000000000000000000000000000000000000000000000000000000000000000000000000000000000000002a0c517d90b8c19373d08475e02799084d0897993fd3461b648259db9525263e2650adaaef48101be1adf4d50acbd8a9e82684619a1f3f989d50e1ebab7fc423fcf000000000000000000000000000000000000000000000000000000000000001c3d3645779b45be96bf5cd69c18a872dcf566e7207f5e956fedc3e701aea4f50408164eb5290a33797640bfacd0ca22c152c9b4b6113f24deabc0f84dd39facdc000000000000000000000000000000000000000000000000000000000000001b0000000000000000000000000000000000000000000000000000000000000041049d9031e97dd78ff8c15aa86939de9b1e791066a0224e331bc962a2099a7b1f0464b8bbafe1535f2301c72c2cb3535b172da30b02686ab0393d348614f157fbdb00000000000000000000000000000000000000000000000000000000000000000000000000000000000000000000000000000000000000000000000000004104ba5734d8f7091719471e7f7ed6b9df170dc70cc661ca05e688601ad984f068b0d67351e5f06073092499336ab0839ef8a521afd334e53807205fa2f08eec74f40000000000000000000000000000000000000000000000000000000000000000000000000000000000000000000000000000000000000000000000000000145fbdb2315678afecb367f032d93f642f64180aa3000000000000000000000000",
      "decodedData": {
        "delegatorPubkey": "0x049d9031e97dd78ff8c15aa86939de9b1e791066a0224e331bc962a2099a7b1f0464b8bbafe1535f2301c72c2cb3535b172da30b02686ab0393d348614f157fbdb",
        "delegateePubkey": "0x04ba5734d8f7091719471e7f7ed6b9df170dc70cc661ca05e688601ad984f068b0d67351e5f06073092499336ab0839ef8a521afd334e53807205fa2f08eec74f4",
        "delegationStartTime": "0",
        "delegationEndTime": "0",
        "doesRevocationRequireDelegateeSignature": true,
        "nonce": "0xf633d8e38e8547488f1d177c7c8349f8",
        "expectedAddressOfDeployedContract": "0x5fbdb2315678afecb367f032d93f642f64180aa3",
        "rDelegatorPubkeySig": "0xc517d90b8c19373d08475e02799084d0897993fd3461b648259db9525263e265",
        "sDelegatorPubkeySig": "0x0adaaef48101be1adf4d50acbd8a9e82684619a1f3f989d50e1ebab7fc423fcf",
        "vDelegatorPubkeySig": "28",
        "rDelegateePubkeySig": "0x3d3645779b45be96bf5cd69c18a872dcf566e7207f5e956fedc3e701aea4f504",
        "sDelegateePubkeySig": "0x08164eb5290a33797640bfacd0ca22c152c9b4b6113f24deabc0f84dd39facdc",
        "vDelegateePubkeySig": "27"
      }
    }
  },
  {
    "signedTx": "0x02f90375827a690284773594008506fc23ac008401c9c380945fbdb2315678afecb367f032d93f642f64180aa380b9030400041499000000000000000000000000000000000000000000000000000000000000002000000000000000000000000000000000000000000000000000000000000001a00000000000000000000000000000000000000000000000000000000000000220000000000000000000000000000000000000000000000000000000000000000000000000000000000000000000000000000000000000000000000000000000000000000000000000000000000000000000000000000000000000000000000001188dcd1f6c9c4440b0b50e48bb726c560000000000000000000000000000000000000000000000000000000000000000000000000000000000000000000002a035a52f5b7596cb522250cbffe58d8eed305596a64d9f6131a76cffd0323fcaaa344e02266d718e60918634de9d79fed893ac5442f813834f389e18e0f9e13c4b000000000000000000000000000000000000000000000000000000000000001c2930b8cfac4e4068940673b88ec9c341117e33bba4913f09ef1aab6449ba53b92c96bd032aaaa4d4589499cf39287b8193c7dfe1090dc935a3e36aa22cd621d2000000000000000000000000000000000000000000000000000000000000001c000000000000000000000000000000000000000000000000000000000000004104bf6ee64a8d2fdc551ec8bb9ef862ef6b4bcb1805cdc520c3aa5866c0575fd3b514c5562c3caae7aec5cd6f144b57135c75b6f6cea059c3d08d1f39a9c227219d000000000000000000000000000000000000000000000000000000000000000000000000000000000000000000000000000000000000000000000000000041048318535b54105d4a7aae60c08fc45f9687181b4fdfc625bd1a753fa7397fed753547f11ca8696646f2f3acb08e31016afac23e630c5d11f59f61fef57b0d2aa50000000000000000000000000000000000000000000000000000000000000000000000000000000000000000000000000000000000000000000000000000145fbdb2315678afecb367f032d93f642f64180aa3000000000000000000000000c001a0b6520c2c1758d553b87cc3e4f1bc5e43d9149bb369b614c7e04a4dd0a9f70f14a061e37fae52b17567f09f3eb893f5bda1581de1d18dd1308f3319fba848d3bdde",
    "decodedTx": {
      "from": "0x15d34aaf54267db7d7c367839aaf71a00a2c6a65",
      "to": "0x5fbdb2315678afecb367f032d93f642f64180aa3",
      "value": "0",
      "gasLimit": "30000000",
      "nonce": 2,
      "chainId": "31337",
      "maxFeePerGas": "30000000000",
      "maxPriorityFeePerGas": "2000000000",
      "funcName": "createDelegationEvent",
      "encodedData": "0x00041499000000000000000000000000000000000000000000000000000000000000002000000000000000000000000000000000000000000000000000000000000001a00000000000000000000000000000000000000000000000000000000000000220000000000000000000000000000000000000000000000000000000000000000000000000000000000000000000000000000000000000000000000000000000000000000000000000000000000000000000000000000000000000000000000001188dcd1f6c9c4440b0b50e48bb726c560000000000000000000000000000000000000000000000000000000000000000000000000000000000000000000002a035a52f5b7596cb522250cbffe58d8eed305596a64d9f6131a76cffd0323fcaaa344e02266d718e60918634de9d79fed893ac5442f813834f389e18e0f9e13c4b000000000000000000000000000000000000000000000000000000000000001c2930b8cfac4e4068940673b88ec9c341117e33bba4913f09ef1aab6449ba53b92c96bd032aaaa4d4589499cf39287b8193c7dfe1090dc935a3e36aa22cd621d2000000000000000000000000000000000000000000000000000000000000001c000000000000000000000000000000000000000000000000000000000000004104bf6ee64a8d2fdc551ec8bb9ef862ef6b4bcb1805cdc520c3aa5866c0575fd3b514c5562c3caae7aec5cd6f144b57135c75b6f6cea059c3d08d1f39a9c227219d000000000000000000000000000000000000000000000000000000000000000000000000000000000000000000000000000000000000000000000000000041048318535b54105d4a7aae60c08fc45f9687181b4fdfc625bd1a753fa7397fed753547f11ca8696646f2f3acb08e31016afac23e630c5d11f59f61fef57b0d2aa50000000000000000000000000000000000000000000000000000000000000000000000000000000000000000000000000000000000000000000000000000145fbdb2315678afecb367f032d93f642f64180aa3000000000000000000000000",
      "decodedData": {
        "delegatorPubkey": "0x04bf6ee64a8d2fdc551ec8bb9ef862ef6b4bcb1805cdc520c3aa5866c0575fd3b514c5562c3caae7aec5cd6f144b57135c75b6f6cea059c3d08d1f39a9c227219d",
        "delegateePubkey": "0x048318535b54105d4a7aae60c08fc45f9687181b4fdfc625bd1a753fa7397fed753547f11ca8696646f2f3acb08e31016afac23e630c5d11f59f61fef57b0d2aa5",
        "delegationStartTime": "0",
        "delegationEndTime": "0",
        "doesRevocationRequireDelegateeSignature": true,
        "nonce": "0x188dcd1f6c9c4440b0b50e48bb726c56",
        "expectedAddressOfDeployedContract": "0x5fbdb2315678afecb367f032d93f642f64180aa3",
        "rDelegatorPubkeySig": "0x35a52f5b7596cb522250cbffe58d8eed305596a64d9f6131a76cffd0323fcaaa",
        "sDelegatorPubkeySig": "0x344e02266d718e60918634de9d79fed893ac5442f813834f389e18e0f9e13c4b",
        "vDelegatorPubkeySig": "28",
        "rDelegateePubkeySig": "0x2930b8cfac4e4068940673b88ec9c341117e33bba4913f09ef1aab6449ba53b9",
        "sDelegateePubkeySig": "0x2c96bd032aaaa4d4589499cf39287b8193c7dfe1090dc935a3e36aa22cd621d2",
        "vDelegateePubkeySig": "28"
      }
    }
  },
  {
    "signedTx": "0x02f90655827a690384773594008506fc23ac008401c9c380945fbdb2315678afecb367f032d93f642f64180aa380b905e48dce31ca000000000000000000000000000000000000000000000000000000000000004000000000000000000000000000000000000000000000000000000000000003000000000000000000000000000000000000000000000000000000000000000180000000000000000000000000000000000000000000000000000000000000020000000000000000000000000000000000000000000000000000000000000000000000000000000000000000000000000000000000000000000000000000000000bb985cab21524ac89a0b370cb869b01d000000000000000000000000000000000000000000000000000000000000000000000000000000000000000000000280037742b1e555b828a0912c079edea2aab6d764e7df1889cdc326f53a47e95d6b1cdebdc97931ae91d827ee6a4edef83b0c132ba5c635f38b4866dfd9c06a9be9000000000000000000000000000000000000000000000000000000000000001cd27498e966626336337e805d3b707e42bd153ac82783cce05bfa7aad45f306971c6f9b4bae9f83ac39c872baf6dfc0831f0869f1bc7d05abcdb73d9491c19df3000000000000000000000000000000000000000000000000000000000000001b000000000000000000000000000000000000000000000000000000000000004104bf6ee64a8d2fdc551ec8bb9ef862ef6b4bcb1805cdc520c3aa5866c0575fd3b514c5562c3caae7aec5cd6f144b57135c75b6f6cea059c3d08d1f39a9c227219d000000000000000000000000000000000000000000000000000000000000000000000000000000000000000000000000000000000000000000000000000041048318535b54105d4a7aae60c08fc45f9687181b4fdfc625bd1a753fa7397fed753547f11ca8696646f2f3acb08e31016afac23e630c5d11f59f61fef57b0d2aa50000000000000000000000000000000000000000000000000000000000000000000000000000000000000000000000000000000000000000000000000000145fbdb2315678afecb367f032d93f642f64180aa300000000000000000000000000000000000000000000000000000000000000000000000000000000000001a0000000000000000000000000000000000000000000000000000000000000022000000000000000000000000000000000000000000000000000000000000000000000000000000000000000000000000000000000000000000000000000000000000000000000000000000000000000000000000000000000000000000000000081a4386347ed43f7a874bad79946dba60000000000000000000000000000000000000000000000000000000000000000000000000000000000000000000002a04d9324b8db28d5d54625582c244eff84ba9bf761eb17355a8ff8271361cbd7737daabba5046e4d4bc2da2c53fb88a881068d4e3e6f366ae92ea4cbf306f61711000000000000000000000000000000000000000000000000000000000000001ce87e3f6bace7c7cc35bd4c05d9d2611b77b8d19b7542094a4790604ece4504296822b061410159ca794d4850eeddcdbe784ac498050a96f3bb86b31663a489a6000000000000000000000000000000000000000000000000000000000000001b000000000000000000000000000000000000000000000000000000000000004104bf6ee64a8d2fdc551ec8bb9ef862ef6b4bcb1805cdc520c3aa5866c0575fd3b514c5562c3caae7aec5cd6f144b57135c75b6f6cea059c3d08d1f39a9c227219d0000000000000000000000000000000000000000000000000000000000000000000000000000000000000000000000000000000000000000000000000000410420b871f3ced029e14472ec4ebc3c0448164942b123aa6af91a3386c1c403e0ebd3b4a5752a2b6c49e574619e6aa0549eb9ccd036b9bbc507e1f7f9712a2360920000000000000000000000000000000000000000000000000000000000000000000000000000000000000000000000000000000000000000000000000000145fbdb2315678afecb367f032d93f642f64180aa3000000000000000000000000c001a09f0e04bc7f53bc931873f0063607012278c5497b95ae570692dab02928597932a02cc14718ca98efd28bfd2f7a3a7e354a2f9315a7e22c43ffc49a79d7cf905d3b",
    "decodedTx": {
      "from": "0x15d34aaf54267db7d7c367839aaf71a00a2c6a65",
      "to": "0x5fbdb2315678afecb367f032d93f642f64180aa3",
      "value": "0",
      "gasLimit": "30000000",
      "nonce": 3,
      "chainId": "31337",
      "maxFeePerGas": "30000000000",
      "maxPriorityFeePerGas": "2000000000",
      "funcName": "createRevocationEventFollowedByDelegationEvent",
      "encodedData": "0x8dce31ca000000000000000000000000000000000000000000000000000000000000004000000000000000000000000000000000000000000000000000000000000003000000000000000000000000000000000000000000000000000000000000000180000000000000000000000000000000000000000000000000000000000000020000000000000000000000000000000000000000000000000000000000000000000000000000000000000000000000000000000000000000000000000000000000bb985cab21524ac89a0b370cb869b01d000000000000000000000000000000000000000000000000000000000000000000000000000000000000000000000280037742b1e555b828a0912c079edea2aab6d764e7df1889cdc326f53a47e95d6b1cdebdc97931ae91d827ee6a4edef83b0c132ba5c635f38b4866dfd9c06a9be9000000000000000000000000000000000000000000000000000000000000001cd27498e966626336337e805d3b707e42bd153ac82783cce05bfa7aad45f306971c6f9b4bae9f83ac39c872baf6dfc0831f0869f1bc7d05abcdb73d9491c19df3000000000000000000000000000000000000000000000000000000000000001b000000000000000000000000000000000000000000000000000000000000004104bf6ee64a8d2fdc551ec8bb9ef862ef6b4bcb1805cdc520c3aa5866c0575fd3b514c5562c3caae7aec5cd6f144b57135c75b6f6cea059c3d08d1f39a9c227219d000000000000000000000000000000000000000000000000000000000000000000000000000000000000000000000000000000000000000000000000000041048318535b54105d4a7aae60c08fc45f9687181b4fdfc625bd1a753fa7397fed753547f11ca8696646f2f3acb08e31016afac23e630c5d11f59f61fef57b0d2aa50000000000000000000000000000000000000000000000000000000000000000000000000000000000000000000000000000000000000000000000000000145fbdb2315678afecb367f032d93f642f64180aa300000000000000000000000000000000000000000000000000000000000000000000000000000000000001a0000000000000000000000000000000000000000000000000000000000000022000000000000000000000000000000000000000000000000000000000000000000000000000000000000000000000000000000000000000000000000000000000000000000000000000000000000000000000000000000000000000000000000081a4386347ed43f7a874bad79946dba60000000000000000000000000000000000000000000000000000000000000000000000000000000000000000000002a04d9324b8db28d5d54625582c244eff84ba9bf761eb17355a8ff8271361cbd7737daabba5046e4d4bc2da2c53fb88a881068d4e3e6f366ae92ea4cbf306f61711000000000000000000000000000000000000000000000000000000000000001ce87e3f6bace7c7cc35bd4c05d9d2611b77b8d19b7542094a4790604ece4504296822b061410159ca794d4850eeddcdbe784ac498050a96f3bb86b31663a489a6000000000000000000000000000000000000000000000000000000000000001b000000000000000000000000000000000000000000000000000000000000004104bf6ee64a8d2fdc551ec8bb9ef862ef6b4bcb1805cdc520c3aa5866c0575fd3b514c5562c3caae7aec5cd6f144b57135c75b6f6cea059c3d08d1f39a9c227219d0000000000000000000000000000000000000000000000000000000000000000000000000000000000000000000000000000000000000000000000000000410420b871f3ced029e14472ec4ebc3c0448164942b123aa6af91a3386c1c403e0ebd3b4a5752a2b6c49e574619e6aa0549eb9ccd036b9bbc507e1f7f9712a2360920000000000000000000000000000000000000000000000000000000000000000000000000000000000000000000000000000000000000000000000000000145fbdb2315678afecb367f032d93f642f64180aa3000000000000000000000000",
      "decodedDataTypeA": {
        "delegatorPubkey": "0x04bf6ee64a8d2fdc551ec8bb9ef862ef6b4bcb1805cdc520c3aa5866c0575fd3b514c5562c3caae7aec5cd6f144b57135c75b6f6cea059c3d08d1f39a9c227219d",
        "delegateePubkey": "0x0420b871f3ced029e14472ec4ebc3c0448164942b123aa6af91a3386c1c403e0ebd3b4a5752a2b6c49e574619e6aa0549eb9ccd036b9bbc507e1f7f9712a236092",
        "delegationStartTime": "0",
        "delegationEndTime": "0",
        "doesRevocationRequireDelegateeSignature": false,
        "nonce": "0x81a4386347ed43f7a874bad79946dba6",
        "expectedAddressOfDeployedContract": "0x5fbdb2315678afecb367f032d93f642f64180aa3",
        "rDelegatorPubkeySig": "0x4d9324b8db28d5d54625582c244eff84ba9bf761eb17355a8ff8271361cbd773",
        "sDelegatorPubkeySig": "0x7daabba5046e4d4bc2da2c53fb88a881068d4e3e6f366ae92ea4cbf306f61711",
        "vDelegatorPubkeySig": "28",
        "rDelegateePubkeySig": "0xe87e3f6bace7c7cc35bd4c05d9d2611b77b8d19b7542094a4790604ece450429",
        "sDelegateePubkeySig": "0x6822b061410159ca794d4850eeddcdbe784ac498050a96f3bb86b31663a489a6",
        "vDelegateePubkeySig": "27"
      },
      "decodedDataTypeB": {
        "revokerPubkey": "0x04bf6ee64a8d2fdc551ec8bb9ef862ef6b4bcb1805cdc520c3aa5866c0575fd3b514c5562c3caae7aec5cd6f144b57135c75b6f6cea059c3d08d1f39a9c227219d",
        "revokeePubkey": "0x048318535b54105d4a7aae60c08fc45f9687181b4fdfc625bd1a753fa7397fed753547f11ca8696646f2f3acb08e31016afac23e630c5d11f59f61fef57b0d2aa5",
        "revocationStartTime": "0",
        "revocationEndTime": "0",
        "nonce": "0xbb985cab21524ac89a0b370cb869b01d",
        "expectedAddressOfDeployedContract": "0x5fbdb2315678afecb367f032d93f642f64180aa3",
        "rRevokerPubkeySig": "0x037742b1e555b828a0912c079edea2aab6d764e7df1889cdc326f53a47e95d6b",
        "sRevokerPubkeySig": "0x1cdebdc97931ae91d827ee6a4edef83b0c132ba5c635f38b4866dfd9c06a9be9",
        "vRevokerPubkeySig": "28",
        "rRevokeePubkeySig": "0xd27498e966626336337e805d3b707e42bd153ac82783cce05bfa7aad45f30697",
        "sRevokeePubkeySig": "0x1c6f9b4bae9f83ac39c872baf6dfc0831f0869f1bc7d05abcdb73d9491c19df3",
        "vRevokeePubkeySig": "27"
      }
    }
  },
  {
    "signedTx": "0x02f90355827a690484773594008506fc23ac008401c9c380945fbdb2315678afecb367f032d93f642f64180aa380b902e4644ae9d5000000000000000000000000000000000000000000000000000000000000002000000000000000000000000000000000000000000000000000000000000001800000000000000000000000000000000000000000000000000000000000000200000000000000000000000000000000000000000000000000000000000000000000000000000000000000000000000000000000000000000000000000000000000ffca98ab1aa4f2aaca7ec5dad1253fd000000000000000000000000000000000000000000000000000000000000000000000000000000000000000000000280feeec15fb3fed0068326dc707c839f46f7df92407ec4b8f7e7883ebdd16920c2241615d9888e7a279995fd074865768396377009e41cf2e643c75a6d0ebb12d3000000000000000000000000000000000000000000000000000000000000001b000000000000000000000000000000000000000000000000000000000000000000000000000000000000000000000000000000000000000000000000000000000000000000000000000000000000000000000000000000000000000000000000000000000000000000000000000000000000000000000000000000000000004104bf6ee64a8d2fdc551ec8bb9ef862ef6b4bcb1805cdc520c3aa5866c0575fd3b514c5562c3caae7aec5cd6f144b57135c75b6f6cea059c3d08d1f39a9c227219d0000000000000000000000000000000000000000000000000000000000000000000000000000000000000000000000000000000000000000000000000000410420b871f3ced029e14472ec4ebc3c0448164942b123aa6af91a3386c1c403e0ebd3b4a5752a2b6c49e574619e6aa0549eb9ccd036b9bbc507e1f7f9712a2360920000000000000000000000000000000000000000000000000000000000000000000000000000000000000000000000000000000000000000000000000000145fbdb2315678afecb367f032d93f642f64180aa3000000000000000000000000c080a0d834d6c228341a630dff4467c84599c4c4bdf227d4e08890f80544445e03621ba06851354443f6a8b863f9dac99a08fafabc054a671f845a5aca5631b86cd4a6cb",
    "decodedTx": {
      "from": "0x15d34aaf54267db7d7c367839aaf71a00a2c6a65",
      "to": "0x5fbdb2315678afecb367f032d93f642f64180aa3",
      "value": "0",
      "gasLimit": "30000000",
      "nonce": 4,
      "chainId": "31337",
      "maxFeePerGas": "30000000000",
      "maxPriorityFeePerGas": "2000000000",
      "funcName": "createRevocationEvent",
      "encodedData": "0x644ae9d5000000000000000000000000000000000000000000000000000000000000002000000000000000000000000000000000000000000000000000000000000001800000000000000000000000000000000000000000000000000000000000000200000000000000000000000000000000000000000000000000000000000000000000000000000000000000000000000000000000000000000000000000000000000ffca98ab1aa4f2aaca7ec5dad1253fd000000000000000000000000000000000000000000000000000000000000000000000000000000000000000000000280feeec15fb3fed0068326dc707c839f46f7df92407ec4b8f7e7883ebdd16920c2241615d9888e7a279995fd074865768396377009e41cf2e643c75a6d0ebb12d3000000000000000000000000000000000000000000000000000000000000001b000000000000000000000000000000000000000000000000000000000000000000000000000000000000000000000000000000000000000000000000000000000000000000000000000000000000000000000000000000000000000000000000000000000000000000000000000000000000000000000000000000000000004104bf6ee64a8d2fdc551ec8bb9ef862ef6b4bcb1805cdc520c3aa5866c0575fd3b514c5562c3caae7aec5cd6f144b57135c75b6f6cea059c3d08d1f39a9c227219d0000000000000000000000000000000000000000000000000000000000000000000000000000000000000000000000000000000000000000000000000000410420b871f3ced029e14472ec4ebc3c0448164942b123aa6af91a3386c1c403e0ebd3b4a5752a2b6c49e574619e6aa0549eb9ccd036b9bbc507e1f7f9712a2360920000000000000000000000000000000000000000000000000000000000000000000000000000000000000000000000000000000000000000000000000000145fbdb2315678afecb367f032d93f642f64180aa3000000000000000000000000",
      "decodedData": {
        "revokerPubkey": "0x04bf6ee64a8d2fdc551ec8bb9ef862ef6b4bcb1805cdc520c3aa5866c0575fd3b514c5562c3caae7aec5cd6f144b57135c75b6f6cea059c3d08d1f39a9c227219d",
        "revokeePubkey": "0x0420b871f3ced029e14472ec4ebc3c0448164942b123aa6af91a3386c1c403e0ebd3b4a5752a2b6c49e574619e6aa0549eb9ccd036b9bbc507e1f7f9712a236092",
        "revocationStartTime": "0",
        "revocationEndTime": "0",
        "nonce": "0x0ffca98ab1aa4f2aaca7ec5dad1253fd",
        "expectedAddressOfDeployedContract": "0x5fbdb2315678afecb367f032d93f642f64180aa3",
        "rRevokerPubkeySig": "0xfeeec15fb3fed0068326dc707c839f46f7df92407ec4b8f7e7883ebdd16920c2",
        "sRevokerPubkeySig": "0x241615d9888e7a279995fd074865768396377009e41cf2e643c75a6d0ebb12d3",
        "vRevokerPubkeySig": "27",
        "rRevokeePubkeySig": "0x0000000000000000000000000000000000000000000000000000000000000000",
        "sRevokeePubkeySig": "0x0000000000000000000000000000000000000000000000000000000000000000",
        "vRevokeePubkeySig": "0"
      }
    }
  },
  {
    "signedTx": "0x02f90655827a690484773594008506fc23ac008401c9c380945fbdb2315678afecb367f032d93f642f64180aa380b905e48dce31ca0000000000000000000000000000000000000000000000000000000000000040000000000000000000000000000000000000000000000000000000000000030000000000000000000000000000000000000000000000000000000000000001800000000000000000000000000000000000000000000000000000000000000200000000000000000000000000000000000000000000000000000000000000000000000000000000000000000000000000000000000000000000000000000000007372ab748b3d42029377dbd0357e88fd00000000000000000000000000000000000000000000000000000000000000000000000000000000000000000000028014d85ac8733b30ee2b8e5c917a676d37f22a501880e6106655a2af519a197d597fe1153569479f285b121472d5ee16f954240c5f98782f06a50e940847f27a55000000000000000000000000000000000000000000000000000000000000001c39dc63811a5d6615e4213533490af5400bb47497b82535bb5c7c4526b7aee0f534eb0e652890a1e0ebf48d9bb009304e586309d76337e32d1fc9b7e4c3395098000000000000000000000000000000000000000000000000000000000000001c0000000000000000000000000000000000000000000000000000000000000041048318535b54105d4a7aae60c08fc45f9687181b4fdfc625bd1a753fa7397fed753547f11ca8696646f2f3acb08e31016afac23e630c5d11f59f61fef57b0d2aa5000000000000000000000000000000000000000000000000000000000000000000000000000000000000000000000000000000000000000000000000000041049d9031e97dd78ff8c15aa86939de9b1e791066a0224e331bc962a2099a7b1f0464b8bbafe1535f2301c72c2cb3535b172da30b02686ab0393d348614f157fbdb0000000000000000000000000000000000000000000000000000000000000000000000000000000000000000000000000000000000000000000000000000145fbdb2315678afecb367f032d93f642f64180aa300000000000000000000000000000000000000000000000000000000000000000000000000000000000001a0000000000000000000000000000000000000000000000000000000000000022000000000000000000000000000000000000000000000000000000000000000000000000000000000000000000000000000000000000000000000000000000000000000000000000000000000000000000000000000000000000000000000000195b26517409945a6914e429b93a2cca30000000000000000000000000000000000000000000000000000000000000000000000000000000000000000000002a0b495381ab0fa63d43dcdd031ba2f1271d0158516780c88af36e648e27fd7728126260bba031f067d2658f7c69aa1f2e267f23bb2672d03cdb775e0109c4b5e3e000000000000000000000000000000000000000000000000000000000000001b89b3a6d76cee4146f1afdfa24e3199df7e5c5cae3da6a5ba3a19af8d460c513f342df2dfce7fd348130823c45c7e87d4b3998a08537c3796dfeb9a10b2415161000000000000000000000000000000000000000000000000000000000000001b0000000000000000000000000000000000000000000000000000000000000041048318535b54105d4a7aae60c08fc45f9687181b4fdfc625bd1a753fa7397fed753547f11ca8696646f2f3acb08e31016afac23e630c5d11f59f61fef57b0d2aa500000000000000000000000000000000000000000000000000000000000000000000000000000000000000000000000000000000000000000000000000004104bf6ee64a8d2fdc551ec8bb9ef862ef6b4bcb1805cdc520c3aa5866c0575fd3b514c5562c3caae7aec5cd6f144b57135c75b6f6cea059c3d08d1f39a9c227219d0000000000000000000000000000000000000000000000000000000000000000000000000000000000000000000000000000000000000000000000000000145fbdb2315678afecb367f032d93f642f64180aa3000000000000000000000000c001a0871f4c6f6ea2f3c602aefd537fa0202cf9fb51604fa4cc1fccc09e5bdc7a147ba01508339cca80115c9d4c666e171e1b9d525fb720093f53f80fdce47a58fe0fe6",
    "decodedTx": {
      "from": "0xf39fd6e51aad88f6f4ce6ab8827279cfffb92266",
      "to": "0x5fbdb2315678afecb367f032d93f642f64180aa3",
      "value": "0",
      "gasLimit": "30000000",
      "nonce": 4,
      "chainId": "31337",
      "maxFeePerGas": "30000000000",
      "maxPriorityFeePerGas": "2000000000",
      "funcName": "createRevocationEventFollowedByDelegationEvent",
      "encodedData": "0x8dce31ca0000000000000000000000000000000000000000000000000000000000000040000000000000000000000000000000000000000000000000000000000000030000000000000000000000000000000000000000000000000000000000000001800000000000000000000000000000000000000000000000000000000000000200000000000000000000000000000000000000000000000000000000000000000000000000000000000000000000000000000000000000000000000000000000007372ab748b3d42029377dbd0357e88fd00000000000000000000000000000000000000000000000000000000000000000000000000000000000000000000028014d85ac8733b30ee2b8e5c917a676d37f22a501880e6106655a2af519a197d597fe1153569479f285b121472d5ee16f954240c5f98782f06a50e940847f27a55000000000000000000000000000000000000000000000000000000000000001c39dc63811a5d6615e4213533490af5400bb47497b82535bb5c7c4526b7aee0f534eb0e652890a1e0ebf48d9bb009304e586309d76337e32d1fc9b7e4c3395098000000000000000000000000000000000000000000000000000000000000001c0000000000000000000000000000000000000000000000000000000000000041048318535b54105d4a7aae60c08fc45f9687181b4fdfc625bd1a753fa7397fed753547f11ca8696646f2f3acb08e31016afac23e630c5d11f59f61fef57b0d2aa5000000000000000000000000000000000000000000000000000000000000000000000000000000000000000000000000000000000000000000000000000041049d9031e97dd78ff8c15aa86939de9b1e791066a0224e331bc962a2099a7b1f0464b8bbafe1535f2301c72c2cb3535b172da30b02686ab0393d348614f157fbdb0000000000000000000000000000000000000000000000000000000000000000000000000000000000000000000000000000000000000000000000000000145fbdb2315678afecb367f032d93f642f64180aa300000000000000000000000000000000000000000000000000000000000000000000000000000000000001a0000000000000000000000000000000000000000000000000000000000000022000000000000000000000000000000000000000000000000000000000000000000000000000000000000000000000000000000000000000000000000000000000000000000000000000000000000000000000000000000000000000000000000195b26517409945a6914e429b93a2cca30000000000000000000000000000000000000000000000000000000000000000000000000000000000000000000002a0b495381ab0fa63d43dcdd031ba2f1271d0158516780c88af36e648e27fd7728126260bba031f067d2658f7c69aa1f2e267f23bb2672d03cdb775e0109c4b5e3e000000000000000000000000000000000000000000000000000000000000001b89b3a6d76cee4146f1afdfa24e3199df7e5c5cae3da6a5ba3a19af8d460c513f342df2dfce7fd348130823c45c7e87d4b3998a08537c3796dfeb9a10b2415161000000000000000000000000000000000000000000000000000000000000001b0000000000000000000000000000000000000000000000000000000000000041048318535b54105d4a7aae60c08fc45f9687181b4fdfc625bd1a753fa7397fed753547f11ca8696646f2f3acb08e31016afac23e630c5d11f59f61fef57b0d2aa500000000000000000000000000000000000000000000000000000000000000000000000000000000000000000000000000000000000000000000000000004104bf6ee64a8d2fdc551ec8bb9ef862ef6b4bcb1805cdc520c3aa5866c0575fd3b514c5562c3caae7aec5cd6f144b57135c75b6f6cea059c3d08d1f39a9c227219d0000000000000000000000000000000000000000000000000000000000000000000000000000000000000000000000000000000000000000000000000000145fbdb2315678afecb367f032d93f642f64180aa3000000000000000000000000",
      "decodedDataTypeA": {
        "delegatorPubkey": "0x048318535b54105d4a7aae60c08fc45f9687181b4fdfc625bd1a753fa7397fed753547f11ca8696646f2f3acb08e31016afac23e630c5d11f59f61fef57b0d2aa5",
        "delegateePubkey": "0x04bf6ee64a8d2fdc551ec8bb9ef862ef6b4bcb1805cdc520c3aa5866c0575fd3b514c5562c3caae7aec5cd6f144b57135c75b6f6cea059c3d08d1f39a9c227219d",
        "delegationStartTime": "0",
        "delegationEndTime": "0",
        "doesRevocationRequireDelegateeSignature": true,
        "nonce": "0x95b26517409945a6914e429b93a2cca3",
        "expectedAddressOfDeployedContract": "0x5fbdb2315678afecb367f032d93f642f64180aa3",
        "rDelegatorPubkeySig": "0xb495381ab0fa63d43dcdd031ba2f1271d0158516780c88af36e648e27fd77281",
        "sDelegatorPubkeySig": "0x26260bba031f067d2658f7c69aa1f2e267f23bb2672d03cdb775e0109c4b5e3e",
        "vDelegatorPubkeySig": "27",
        "rDelegateePubkeySig": "0x89b3a6d76cee4146f1afdfa24e3199df7e5c5cae3da6a5ba3a19af8d460c513f",
        "sDelegateePubkeySig": "0x342df2dfce7fd348130823c45c7e87d4b3998a08537c3796dfeb9a10b2415161",
        "vDelegateePubkeySig": "27"
      },
      "decodedDataTypeB": {
        "revokerPubkey": "0x048318535b54105d4a7aae60c08fc45f9687181b4fdfc625bd1a753fa7397fed753547f11ca8696646f2f3acb08e31016afac23e630c5d11f59f61fef57b0d2aa5",
        "revokeePubkey": "0x049d9031e97dd78ff8c15aa86939de9b1e791066a0224e331bc962a2099a7b1f0464b8bbafe1535f2301c72c2cb3535b172da30b02686ab0393d348614f157fbdb",
        "revocationStartTime": "0",
        "revocationEndTime": "0",
        "nonce": "0x7372ab748b3d42029377dbd0357e88fd",
        "expectedAddressOfDeployedContract": "0x5fbdb2315678afecb367f032d93f642f64180aa3",
        "rRevokerPubkeySig": "0x14d85ac8733b30ee2b8e5c917a676d37f22a501880e6106655a2af519a197d59",
        "sRevokerPubkeySig": "0x7fe1153569479f285b121472d5ee16f954240c5f98782f06a50e940847f27a55",
        "vRevokerPubkeySig": "28",
        "rRevokeePubkeySig": "0x39dc63811a5d6615e4213533490af5400bb47497b82535bb5c7c4526b7aee0f5",
        "sRevokeePubkeySig": "0x34eb0e652890a1e0ebf48d9bb009304e586309d76337e32d1fc9b7e4c3395098",
        "vRevokeePubkeySig": "28"
      }
    }
  },
  {
    "signedTx": "0x02f90354827a690584773594008506fc23ac008401c9c380945fbdb2315678afecb367f032d93f642f64180aa380b902e4644ae9d5000000000000000000000000000000000000000000000000000000000000002000000000000000000000000000000000000000000000000000000000000001800000000000000000000000000000000000000000000000000000000000000200000000000000000000000000000000000000000000000000000000000000000000000000000000000000000000000000000000000000000000000000000000006f9d9b7a983844a7b6e6130a8dbaac8c0000000000000000000000000000000000000000000000000000000000000000000000000000000000000000000002807e7e5cb24d946c1e1f9140445ced405a5ca0a143804a66a659de4564bef50507382564d7915c541df0a89da948e6ac178cfe94ef9dd4334f1bb8a5a66f4ac2a2000000000000000000000000000000000000000000000000000000000000001c0000000000000000000000000000000000000000000000000000000000000000000000000000000000000000000000000000000000000000000000000000000000000000000000000000000000000000000000000000000000000000000000000000000000000000000000000000000000000000000000000000000000000041048318535b54105d4a7aae60c08fc45f9687181b4fdfc625bd1a753fa7397fed753547f11ca8696646f2f3acb08e31016afac23e630c5d11f59f61fef57b0d2aa500000000000000000000000000000000000000000000000000000000000000000000000000000000000000000000000000000000000000000000000000004104bf6ee64a8d2fdc551ec8bb9ef862ef6b4bcb1805cdc520c3aa5866c0575fd3b514c5562c3caae7aec5cd6f144b57135c75b6f6cea059c3d08d1f39a9c227219d0000000000000000000000000000000000000000000000000000000000000000000000000000000000000000000000000000000000000000000000000000145fbdb2315678afecb367f032d93f642f64180aa3000000000000000000000000c001a0e91b29091852677bd3c639b294afe3b5484547a1d01feaae8fba2bbdbac641069fb8dcb987dcf5341b584b836fd91628040471ec9a1f2791026780bc990cca86",
    "decodedTx": {
      "from": "0xf39fd6e51aad88f6f4ce6ab8827279cfffb92266",
      "to": "0x5fbdb2315678afecb367f032d93f642f64180aa3",
      "value": "0",
      "gasLimit": "30000000",
      "nonce": 5,
      "chainId": "31337",
      "maxFeePerGas": "30000000000",
      "maxPriorityFeePerGas": "2000000000",
      "funcName": "createRevocationEvent",
      "encodedData": "0x644ae9d5000000000000000000000000000000000000000000000000000000000000002000000000000000000000000000000000000000000000000000000000000001800000000000000000000000000000000000000000000000000000000000000200000000000000000000000000000000000000000000000000000000000000000000000000000000000000000000000000000000000000000000000000000000006f9d9b7a983844a7b6e6130a8dbaac8c0000000000000000000000000000000000000000000000000000000000000000000000000000000000000000000002807e7e5cb24d946c1e1f9140445ced405a5ca0a143804a66a659de4564bef50507382564d7915c541df0a89da948e6ac178cfe94ef9dd4334f1bb8a5a66f4ac2a2000000000000000000000000000000000000000000000000000000000000001c0000000000000000000000000000000000000000000000000000000000000000000000000000000000000000000000000000000000000000000000000000000000000000000000000000000000000000000000000000000000000000000000000000000000000000000000000000000000000000000000000000000000000041048318535b54105d4a7aae60c08fc45f9687181b4fdfc625bd1a753fa7397fed753547f11ca8696646f2f3acb08e31016afac23e630c5d11f59f61fef57b0d2aa500000000000000000000000000000000000000000000000000000000000000000000000000000000000000000000000000000000000000000000000000004104bf6ee64a8d2fdc551ec8bb9ef862ef6b4bcb1805cdc520c3aa5866c0575fd3b514c5562c3caae7aec5cd6f144b57135c75b6f6cea059c3d08d1f39a9c227219d0000000000000000000000000000000000000000000000000000000000000000000000000000000000000000000000000000000000000000000000000000145fbdb2315678afecb367f032d93f642f64180aa3000000000000000000000000",
      "decodedData": {
        "revokerPubkey": "0x048318535b54105d4a7aae60c08fc45f9687181b4fdfc625bd1a753fa7397fed753547f11ca8696646f2f3acb08e31016afac23e630c5d11f59f61fef57b0d2aa5",
        "revokeePubkey": "0x04bf6ee64a8d2fdc551ec8bb9ef862ef6b4bcb1805cdc520c3aa5866c0575fd3b514c5562c3caae7aec5cd6f144b57135c75b6f6cea059c3d08d1f39a9c227219d",
        "revocationStartTime": "0",
        "revocationEndTime": "0",
        "nonce": "0x6f9d9b7a983844a7b6e6130a8dbaac8c",
        "expectedAddressOfDeployedContract": "0x5fbdb2315678afecb367f032d93f642f64180aa3",
        "rRevokerPubkeySig": "0x7e7e5cb24d946c1e1f9140445ced405a5ca0a143804a66a659de4564bef50507",
        "sRevokerPubkeySig": "0x382564d7915c541df0a89da948e6ac178cfe94ef9dd4334f1bb8a5a66f4ac2a2",
        "vRevokerPubkeySig": "28",
        "rRevokeePubkeySig": "0x0000000000000000000000000000000000000000000000000000000000000000",
        "sRevokeePubkeySig": "0x0000000000000000000000000000000000000000000000000000000000000000",
        "vRevokeePubkeySig": "0"
      }
    }
  },
  {
    "signedTx": "0x02f90375827a690684773594008506fc23ac008401c9c380945fbdb2315678afecb367f032d93f642f64180aa380b9030400041499000000000000000000000000000000000000000000000000000000000000002000000000000000000000000000000000000000000000000000000000000001a00000000000000000000000000000000000000000000000000000000000000220000000000000000000000000000000000000000000000000000000000000000000000000000000000000000000000000000000000000000000000000000000000000000000000000000000000000000000000000000000000000000000000001cd8e2b80b6a4427eba47c618ad20c51a0000000000000000000000000000000000000000000000000000000000000000000000000000000000000000000002a0cf90a44381fd909b2385dcdc02b9edb9b01086a087713a5e35efffc56617023c11567bf8bea7c533c29662c2bd5b571882ebc98e4e8278a53f33cd99b93389f6000000000000000000000000000000000000000000000000000000000000001be36532478a472422d7f0ee244a70712b6d41e533ba264a6c95535163f067feb41393c0d59d5da58d023db3e8ca6f79b42ab01cf7ce3b854bc9a2eddcccf57af7000000000000000000000000000000000000000000000000000000000000001b0000000000000000000000000000000000000000000000000000000000000041048318535b54105d4a7aae60c08fc45f9687181b4fdfc625bd1a753fa7397fed753547f11ca8696646f2f3acb08e31016afac23e630c5d11f59f61fef57b0d2aa5000000000000000000000000000000000000000000000000000000000000000000000000000000000000000000000000000000000000000000000000000041049d9031e97dd78ff8c15aa86939de9b1e791066a0224e331bc962a2099a7b1f0464b8bbafe1535f2301c72c2cb3535b172da30b02686ab0393d348614f157fbdb0000000000000000000000000000000000000000000000000000000000000000000000000000000000000000000000000000000000000000000000000000145fbdb2315678afecb367f032d93f642f64180aa3000000000000000000000000c080a02058ef14003638931dc556eb4f66e6a5401e4c7f8a50dbb85555b6ec9e255489a031a27299a9bfeb342ebe4d93d864744ab9f1efa30bdb02a1efeec27d4b709dab",
    "decodedTx": {
      "from": "0xf39fd6e51aad88f6f4ce6ab8827279cfffb92266",
      "to": "0x5fbdb2315678afecb367f032d93f642f64180aa3",
      "value": "0",
      "gasLimit": "30000000",
      "nonce": 6,
      "chainId": "31337",
      "maxFeePerGas": "30000000000",
      "maxPriorityFeePerGas": "2000000000",
      "funcName": "createDelegationEvent",
      "encodedData": "0x00041499000000000000000000000000000000000000000000000000000000000000002000000000000000000000000000000000000000000000000000000000000001a00000000000000000000000000000000000000000000000000000000000000220000000000000000000000000000000000000000000000000000000000000000000000000000000000000000000000000000000000000000000000000000000000000000000000000000000000000000000000000000000000000000000000001cd8e2b80b6a4427eba47c618ad20c51a0000000000000000000000000000000000000000000000000000000000000000000000000000000000000000000002a0cf90a44381fd909b2385dcdc02b9edb9b01086a087713a5e35efffc56617023c11567bf8bea7c533c29662c2bd5b571882ebc98e4e8278a53f33cd99b93389f6000000000000000000000000000000000000000000000000000000000000001be36532478a472422d7f0ee244a70712b6d41e533ba264a6c95535163f067feb41393c0d59d5da58d023db3e8ca6f79b42ab01cf7ce3b854bc9a2eddcccf57af7000000000000000000000000000000000000000000000000000000000000001b0000000000000000000000000000000000000000000000000000000000000041048318535b54105d4a7aae60c08fc45f9687181b4fdfc625bd1a753fa7397fed753547f11ca8696646f2f3acb08e31016afac23e630c5d11f59f61fef57b0d2aa5000000000000000000000000000000000000000000000000000000000000000000000000000000000000000000000000000000000000000000000000000041049d9031e97dd78ff8c15aa86939de9b1e791066a0224e331bc962a2099a7b1f0464b8bbafe1535f2301c72c2cb3535b172da30b02686ab0393d348614f157fbdb0000000000000000000000000000000000000000000000000000000000000000000000000000000000000000000000000000000000000000000000000000145fbdb2315678afecb367f032d93f642f64180aa3000000000000000000000000",
      "decodedData": {
        "delegatorPubkey": "0x048318535b54105d4a7aae60c08fc45f9687181b4fdfc625bd1a753fa7397fed753547f11ca8696646f2f3acb08e31016afac23e630c5d11f59f61fef57b0d2aa5",
        "delegateePubkey": "0x049d9031e97dd78ff8c15aa86939de9b1e791066a0224e331bc962a2099a7b1f0464b8bbafe1535f2301c72c2cb3535b172da30b02686ab0393d348614f157fbdb",
        "delegationStartTime": "0",
        "delegationEndTime": "0",
        "doesRevocationRequireDelegateeSignature": true,
        "nonce": "0xcd8e2b80b6a4427eba47c618ad20c51a",
        "expectedAddressOfDeployedContract": "0x5fbdb2315678afecb367f032d93f642f64180aa3",
        "rDelegatorPubkeySig": "0xcf90a44381fd909b2385dcdc02b9edb9b01086a087713a5e35efffc56617023c",
        "sDelegatorPubkeySig": "0x11567bf8bea7c533c29662c2bd5b571882ebc98e4e8278a53f33cd99b93389f6",
        "vDelegatorPubkeySig": "27",
        "rDelegateePubkeySig": "0xe36532478a472422d7f0ee244a70712b6d41e533ba264a6c95535163f067feb4",
        "sDelegateePubkeySig": "0x1393c0d59d5da58d023db3e8ca6f79b42ab01cf7ce3b854bc9a2eddcccf57af7",
        "vDelegateePubkeySig": "27"
      }
    }
  },
  {
    "signedTx": "0x02f90355827a690784773594008506fc23ac008401c9c380945fbdb2315678afecb367f032d93f642f64180aa380b902e4644ae9d50000000000000000000000000000000000000000000000000000000000000020000000000000000000000000000000000000000000000000000000000000018000000000000000000000000000000000000000000000000000000000000002000000000000000000000000000000000000000000000000000000000000000000000000000000000000000000000000000000000000000000000000000000000028a820213a754b10bba6dd186f10a6f30000000000000000000000000000000000000000000000000000000000000000000000000000000000000000000002803f52f34759f4366c05075be957159b59bab463f967254da41cb98398f2bfd183480ad2081ff7ff6781970a5c39842ad6310ed6185fbdb7f3476b75328ef3e884000000000000000000000000000000000000000000000000000000000000001b01d57c293ffa3292986766873b3bbaecdb0fd91602224a0a402bc5f82370e3081ce0173b5dfcdcf659768d037670acb1d0375b3fdabada97e738f80d767d4eab000000000000000000000000000000000000000000000000000000000000001b0000000000000000000000000000000000000000000000000000000000000041048318535b54105d4a7aae60c08fc45f9687181b4fdfc625bd1a753fa7397fed753547f11ca8696646f2f3acb08e31016afac23e630c5d11f59f61fef57b0d2aa500000000000000000000000000000000000000000000000000000000000000000000000000000000000000000000000000000000000000000000000000004104bf6ee64a8d2fdc551ec8bb9ef862ef6b4bcb1805cdc520c3aa5866c0575fd3b514c5562c3caae7aec5cd6f144b57135c75b6f6cea059c3d08d1f39a9c227219d0000000000000000000000000000000000000000000000000000000000000000000000000000000000000000000000000000000000000000000000000000145fbdb2315678afecb367f032d93f642f64180aa3000000000000000000000000c080a0c51faee8ecb5a0439082f2945b41d5910d2c123d7328e380f21534295947d130a05584e1b489a43e35352383c612ce67582bef3ec5a0f55d1db67cc597a6f63c57",
    "decodedTx": {
      "from": "0xf39fd6e51aad88f6f4ce6ab8827279cfffb92266",
      "to": "0x5fbdb2315678afecb367f032d93f642f64180aa3",
      "value": "0",
      "gasLimit": "30000000",
      "nonce": 7,
      "chainId": "31337",
      "maxFeePerGas": "30000000000",
      "maxPriorityFeePerGas": "2000000000",
      "funcName": "createRevocationEvent",
      "encodedData": "0x644ae9d50000000000000000000000000000000000000000000000000000000000000020000000000000000000000000000000000000000000000000000000000000018000000000000000000000000000000000000000000000000000000000000002000000000000000000000000000000000000000000000000000000000000000000000000000000000000000000000000000000000000000000000000000000000028a820213a754b10bba6dd186f10a6f30000000000000000000000000000000000000000000000000000000000000000000000000000000000000000000002803f52f34759f4366c05075be957159b59bab463f967254da41cb98398f2bfd183480ad2081ff7ff6781970a5c39842ad6310ed6185fbdb7f3476b75328ef3e884000000000000000000000000000000000000000000000000000000000000001b01d57c293ffa3292986766873b3bbaecdb0fd91602224a0a402bc5f82370e3081ce0173b5dfcdcf659768d037670acb1d0375b3fdabada97e738f80d767d4eab000000000000000000000000000000000000000000000000000000000000001b0000000000000000000000000000000000000000000000000000000000000041048318535b54105d4a7aae60c08fc45f9687181b4fdfc625bd1a753fa7397fed753547f11ca8696646f2f3acb08e31016afac23e630c5d11f59f61fef57b0d2aa500000000000000000000000000000000000000000000000000000000000000000000000000000000000000000000000000000000000000000000000000004104bf6ee64a8d2fdc551ec8bb9ef862ef6b4bcb1805cdc520c3aa5866c0575fd3b514c5562c3caae7aec5cd6f144b57135c75b6f6cea059c3d08d1f39a9c227219d0000000000000000000000000000000000000000000000000000000000000000000000000000000000000000000000000000000000000000000000000000145fbdb2315678afecb367f032d93f642f64180aa3000000000000000000000000",
      "decodedData": {
        "revokerPubkey": "0x048318535b54105d4a7aae60c08fc45f9687181b4fdfc625bd1a753fa7397fed753547f11ca8696646f2f3acb08e31016afac23e630c5d11f59f61fef57b0d2aa5",
        "revokeePubkey": "0x04bf6ee64a8d2fdc551ec8bb9ef862ef6b4bcb1805cdc520c3aa5866c0575fd3b514c5562c3caae7aec5cd6f144b57135c75b6f6cea059c3d08d1f39a9c227219d",
        "revocationStartTime": "0",
        "revocationEndTime": "0",
        "nonce": "0x28a820213a754b10bba6dd186f10a6f3",
        "expectedAddressOfDeployedContract": "0x5fbdb2315678afecb367f032d93f642f64180aa3",
        "rRevokerPubkeySig": "0x3f52f34759f4366c05075be957159b59bab463f967254da41cb98398f2bfd183",
        "sRevokerPubkeySig": "0x480ad2081ff7ff6781970a5c39842ad6310ed6185fbdb7f3476b75328ef3e884",
        "vRevokerPubkeySig": "27",
        "rRevokeePubkeySig": "0x01d57c293ffa3292986766873b3bbaecdb0fd91602224a0a402bc5f82370e308",
        "sRevokeePubkeySig": "0x1ce0173b5dfcdcf659768d037670acb1d0375b3fdabada97e738f80d767d4eab",
        "vRevokeePubkeySig": "27"
      }
    }
  }
]